{
  "_format": "hh-sol-artifact-1",
  "contractName": "ChainlinkCalculator",
  "sourceName": "contracts/extensions/ChainlinkCalculator.sol",
  "abi": [
    {
      "inputs": [],
      "name": "DifferentOracleDecimals",
      "type": "error"
    },
    {
      "inputs": [
        {
          "internalType": "int256",
          "name": "value",
          "type": "int256"
        }
      ],
      "name": "SafeCastOverflowedIntToUint",
      "type": "error"
    },
    {
      "inputs": [],
      "name": "StaleOraclePrice",
      "type": "error"
    },
    {
      "inputs": [
        {
          "internalType": "contract AggregatorV3Interface",
          "name": "oracle1",
          "type": "address"
        },
        {
          "internalType": "contract AggregatorV3Interface",
          "name": "oracle2",
          "type": "address"
        },
        {
          "internalType": "int256",
          "name": "decimalsScale",
          "type": "int256"
        },
        {
          "internalType": "uint256",
          "name": "amount",
          "type": "uint256"
        }
      ],
      "name": "doublePrice",
      "outputs": [
        {
          "internalType": "uint256",
          "name": "result",
          "type": "uint256"
        }
      ],
      "stateMutability": "view",
      "type": "function"
    },
    {
      "inputs": [
        {
          "components": [
            {
              "internalType": "uint256",
              "name": "salt",
              "type": "uint256"
            },
            {
              "internalType": "Address",
              "name": "maker",
              "type": "uint256"
            },
            {
              "internalType": "Address",
              "name": "receiver",
              "type": "uint256"
            },
            {
              "internalType": "Address",
              "name": "makerAsset",
              "type": "uint256"
            },
            {
              "internalType": "Address",
              "name": "takerAsset",
              "type": "uint256"
            },
            {
              "internalType": "uint256",
              "name": "makingAmount",
              "type": "uint256"
            },
            {
              "internalType": "uint256",
              "name": "takingAmount",
              "type": "uint256"
            },
            {
              "internalType": "MakerTraits",
              "name": "makerTraits",
              "type": "uint256"
            }
          ],
          "internalType": "struct IOrderMixin.Order",
          "name": "",
          "type": "tuple"
        },
        {
          "internalType": "bytes",
          "name": "",
          "type": "bytes"
        },
        {
          "internalType": "bytes32",
          "name": "",
          "type": "bytes32"
        },
        {
          "internalType": "address",
          "name": "",
          "type": "address"
        },
        {
          "internalType": "uint256",
          "name": "takingAmount",
          "type": "uint256"
        },
        {
          "internalType": "uint256",
          "name": "",
          "type": "uint256"
        },
        {
          "internalType": "bytes",
          "name": "extraData",
          "type": "bytes"
        }
      ],
      "name": "getMakingAmount",
      "outputs": [
        {
          "internalType": "uint256",
          "name": "",
          "type": "uint256"
        }
      ],
      "stateMutability": "view",
      "type": "function"
    },
    {
      "inputs": [
        {
          "components": [
            {
              "internalType": "uint256",
              "name": "salt",
              "type": "uint256"
            },
            {
              "internalType": "Address",
              "name": "maker",
              "type": "uint256"
            },
            {
              "internalType": "Address",
              "name": "receiver",
              "type": "uint256"
            },
            {
              "internalType": "Address",
              "name": "makerAsset",
              "type": "uint256"
            },
            {
              "internalType": "Address",
              "name": "takerAsset",
              "type": "uint256"
            },
            {
              "internalType": "uint256",
              "name": "makingAmount",
              "type": "uint256"
            },
            {
              "internalType": "uint256",
              "name": "takingAmount",
              "type": "uint256"
            },
            {
              "internalType": "MakerTraits",
              "name": "makerTraits",
              "type": "uint256"
            }
          ],
          "internalType": "struct IOrderMixin.Order",
          "name": "",
          "type": "tuple"
        },
        {
          "internalType": "bytes",
          "name": "",
          "type": "bytes"
        },
        {
          "internalType": "bytes32",
          "name": "",
          "type": "bytes32"
        },
        {
          "internalType": "address",
          "name": "",
          "type": "address"
        },
        {
          "internalType": "uint256",
          "name": "makingAmount",
          "type": "uint256"
        },
        {
          "internalType": "uint256",
          "name": "",
          "type": "uint256"
        },
        {
          "internalType": "bytes",
          "name": "extraData",
          "type": "bytes"
        }
      ],
      "name": "getTakingAmount",
      "outputs": [
        {
          "internalType": "uint256",
          "name": "",
          "type": "uint256"
        }
      ],
      "stateMutability": "view",
      "type": "function"
    }
  ],
  "bytecode": "0x6080806040523461001657610961908161001b8239f35b5f80fdfe60806040526004361015610011575f80fd5b5f3560e01c80631d9671c31461003a578063d13782391461003f5763d7ff8a801461003a575f80fd5b6100e9565b346100b75760807ffffffffffffffffffffffffffffffffffffffffffffffffffffffffffffffffc3601126100b75773ffffffffffffffffffffffffffffffffffffffff60043581811681036100b75760243591821682036100b7576020916100af91606435916044359161059f565b604051908152f35b5f80fd5b9181601f840112156100b75782359167ffffffffffffffff83116100b757602083818601950101116100b757565b346100b7577ffffffffffffffffffffffffffffffffffffffffffffffffffffffffffffffffc36016101c081126100b757610100136100b75767ffffffffffffffff610104358181116100b7576101449036906004016100bb565b50506101443573ffffffffffffffffffffffffffffffffffffffff8116036100b7576101a4359081116100b7576100af61018460209236906004016100bb565b90610164356102e9565b90601f7fffffffffffffffffffffffffffffffffffffffffffffffffffffffffffffffe0910116810190811067ffffffffffffffff8211176101cf57604052565b7f4e487b71000000000000000000000000000000000000000000000000000000005f52604160045260245ffd5b519069ffffffffffffffffffff821682036100b757565b908160a09103126100b757610227816101fc565b916020820151916040810151916102456080606084015193016101fc565b90565b8181029291811591840414171561025b57565b7f4e487b71000000000000000000000000000000000000000000000000000000005f52601160045260245ffd5b908160209103126100b7575160ff811681036100b75790565b60ff16604d811161025b57600a0a90565b81156102bc570490565b7f4e487b71000000000000000000000000000000000000000000000000000000005f52601260045260245ffd5b9091806001116100b75782357f4000000000000000000000000000000000000000000000000000000000000000808216036103755750806015116100b757806029116100b757806049116100b7576069116100b75781610355610371926049633b9aca00950135610248565b906029810135906001601582013560601c91013560601c61059f565b0490565b92816015939293116100b757600181013560601c926035116100b75760150135906040918251947ffeaf968c00000000000000000000000000000000000000000000000000000000865260a086600481885afa8015610587575f965f9161054f575b50613840810180911161025b574211610526577f8000000000000000000000000000000000000000000000000000000000000000908116036104c157610421600492602092610248565b938351928380927f313ce5670000000000000000000000000000000000000000000000000000000082525afa9182156104b8575061047d61037193610477633b9aca009694610483945f91610489575b506102a1565b90610248565b916108f0565b906102b2565b6104ab915060203d6020116104b1575b6104a3818361018e565b810190610288565b5f610471565b503d610499565b513d5f823e3d90fd5b600492939461047761047d6020946104d894610248565b938351928380927f313ce5670000000000000000000000000000000000000000000000000000000082525afa9182156104b857509161048361037192633b9aca00945f9161048957506102a1565b600484517fa887f2d8000000000000000000000000000000000000000000000000000000008152fd5b905061057491965060a03d60a011610580575b61056c818361018e565b810190610213565b5097925050955f6103d7565b503d610562565b84513d5f823e3d90fd5b604d811161025b57600a0a90565b9273ffffffffffffffffffffffffffffffffffffffff8094169360409182517f313ce5670000000000000000000000000000000000000000000000000000000092838252602090600496828489818d5afa9384156108e6575f946108c7575b501693855190815281818881885afa9182156108bd579160ff929183925f926108a0575b5050169116036108785782519485917ffeaf968c0000000000000000000000000000000000000000000000000000000097888452838760a0998a935afa92831561086e575f905f94610849575b506138409384810180911161081d5742116107f55790610477610691926108f0565b905f8113156107725786916104776106ab6106b0936108f0565b610591565b965b8585518095819382525afa918215610768575f955f9361073f575b505081018091116107135742116106ed57505090610483610245926108f0565b517fa887f2d8000000000000000000000000000000000000000000000000000000008152fd5b6011837f4e487b71000000000000000000000000000000000000000000000000000000005f525260245ffd5b809192965061075a9350903d106105805761056c818361018e565b509592505093905f806106cd565b83513d5f823e3d90fd5b5f8198929812610785575b5085906106b2565b7f800000000000000000000000000000000000000000000000000000000000000081989298146107c95786916104836106ab6107c2935f036108f0565b969061077d565b6011867f4e487b71000000000000000000000000000000000000000000000000000000005f525260245ffd5b8686517fa887f2d8000000000000000000000000000000000000000000000000000000008152fd5b6011887f4e487b71000000000000000000000000000000000000000000000000000000005f525260245ffd5b9050610863919350873d89116105805761056c818361018e565b50949250505f61066f565b85513d5f823e3d90fd5b5050517f274cd55d000000000000000000000000000000000000000000000000000000008152fd5b6108b69250803d106104b1576104a3818361018e565b5f80610622565b86513d5f823e3d90fd5b6108df919450833d85116104b1576104a3818361018e565b925f6105fe565b87513d5f823e3d90fd5b5f81126108fa5790565b602490604051907fa8ce44320000000000000000000000000000000000000000000000000000000082526004820152fdfea2646970667358221220f5ced4d01fd4131104b3dc33c11143ac31d301e27338fbc3762c4a26d4a9abc864736f6c63430008170033",
  "linkReferences": {},
  "deployedLinkReferences": {}
}