{
  "_format": "hh-sol-artifact-1",
  "contractName": "IcebergOrderV1",
  "sourceName": "contracts/extensions/IcebergOrderV1.sol",
  "abi": [
    {
      "inputs": [
        {
          "internalType": "address",
          "name": "_limitOrderProtocol",
          "type": "address"
        }
      ],
      "stateMutability": "nonpayable",
      "type": "constructor"
    },
    {
      "inputs": [],
      "name": "ChunkNotReady",
      "type": "error"
    },
    {
      "inputs": [],
      "name": "ChunkTooLarge",
      "type": "error"
    },
    {
      "inputs": [],
      "name": "ChunkTooSmall",
      "type": "error"
    },
    {
      "inputs": [],
      "name": "EnforcedPause",
      "type": "error"
    },
    {
      "inputs": [],
      "name": "ExpectedPause",
      "type": "error"
    },
    {
      "inputs": [],
      "name": "IcebergNotConfigured",
      "type": "error"
    },
    {
      "inputs": [],
      "name": "IcebergOrderCompleted",
      "type": "error"
    },
    {
      "inputs": [],
      "name": "InsufficientRemainingAmount",
      "type": "error"
    },
    {
      "inputs": [],
      "name": "InvalidChunkSize",
      "type": "error"
    },
    {
      "inputs": [],
      "name": "InvalidRevealStrategy",
      "type": "error"
    },
    {
      "inputs": [],
      "name": "InvalidTimeInterval",
      "type": "error"
    },
    {
      "inputs": [],
      "name": "InvalidTotalAmount",
      "type": "error"
    },
    {
      "inputs": [],
      "name": "OnlyLimitOrderProtocol",
      "type": "error"
    },
    {
      "inputs": [
        {
          "internalType": "address",
          "name": "owner",
          "type": "address"
        }
      ],
      "name": "OwnableInvalidOwner",
      "type": "error"
    },
    {
      "inputs": [
        {
          "internalType": "address",
          "name": "account",
          "type": "address"
        }
      ],
      "name": "OwnableUnauthorizedAccount",
      "type": "error"
    },
    {
      "inputs": [],
      "name": "PriceImprovementRequired",
      "type": "error"
    },
    {
      "inputs": [],
      "name": "ReentrancyGuardReentrantCall",
      "type": "error"
    },
    {
      "inputs": [],
      "name": "SafeTransferFailed",
      "type": "error"
    },
    {
      "inputs": [],
      "name": "UnauthorizedCaller",
      "type": "error"
    },
    {
      "anonymous": false,
      "inputs": [
        {
          "indexed": true,
          "internalType": "bytes32",
          "name": "orderHash",
          "type": "bytes32"
        },
        {
          "indexed": false,
          "internalType": "uint256",
          "name": "chunkId",
          "type": "uint256"
        },
        {
          "indexed": false,
          "internalType": "uint256",
          "name": "filledAmount",
          "type": "uint256"
        },
        {
          "indexed": false,
          "internalType": "uint256",
          "name": "fillPrice",
          "type": "uint256"
        },
        {
          "indexed": false,
          "internalType": "uint256",
          "name": "fillTime",
          "type": "uint256"
        }
      ],
      "name": "ChunkFilled",
      "type": "event"
    },
    {
      "anonymous": false,
      "inputs": [
        {
          "indexed": true,
          "internalType": "bytes32",
          "name": "orderHash",
          "type": "bytes32"
        },
        {
          "indexed": false,
          "internalType": "uint256",
          "name": "chunkId",
          "type": "uint256"
        },
        {
          "indexed": false,
          "internalType": "uint256",
          "name": "chunkSize",
          "type": "uint256"
        },
        {
          "indexed": false,
          "internalType": "uint256",
          "name": "totalFilled",
          "type": "uint256"
        },
        {
          "indexed": false,
          "internalType": "uint256",
          "name": "remainingAmount",
          "type": "uint256"
        }
      ],
      "name": "ChunkRevealed",
      "type": "event"
    },
    {
      "anonymous": false,
      "inputs": [
        {
          "indexed": true,
          "internalType": "bytes32",
          "name": "orderHash",
          "type": "bytes32"
        },
        {
          "indexed": false,
          "internalType": "uint256",
          "name": "totalFilled",
          "type": "uint256"
        },
        {
          "indexed": false,
          "internalType": "uint256",
          "name": "totalChunks",
          "type": "uint256"
        },
        {
          "indexed": false,
          "internalType": "uint256",
          "name": "avgFillTime",
          "type": "uint256"
        }
      ],
      "name": "IcebergCompleted",
      "type": "event"
    },
    {
      "anonymous": false,
      "inputs": [
        {
          "indexed": true,
          "internalType": "bytes32",
          "name": "orderHash",
          "type": "bytes32"
        },
        {
          "indexed": true,
          "internalType": "address",
          "name": "orderMaker",
          "type": "address"
        },
        {
          "indexed": false,
          "internalType": "uint256",
          "name": "totalMakingAmount",
          "type": "uint256"
        },
        {
          "indexed": false,
          "internalType": "uint256",
          "name": "baseChunkSize",
          "type": "uint256"
        },
        {
          "indexed": false,
          "internalType": "enum IcebergOrderV1.RevealStrategy",
          "name": "strategy",
          "type": "uint8"
        }
      ],
      "name": "IcebergConfigured",
      "type": "event"
    },
    {
      "anonymous": false,
      "inputs": [
        {
          "indexed": true,
          "internalType": "address",
          "name": "keeper",
          "type": "address"
        },
        {
          "indexed": false,
          "internalType": "bool",
          "name": "authorized",
          "type": "bool"
        }
      ],
      "name": "KeeperAuthorized",
      "type": "event"
    },
    {
      "anonymous": false,
      "inputs": [
        {
          "indexed": true,
          "internalType": "address",
          "name": "previousOwner",
          "type": "address"
        },
        {
          "indexed": true,
          "internalType": "address",
          "name": "newOwner",
          "type": "address"
        }
      ],
      "name": "OwnershipTransferred",
      "type": "event"
    },
    {
      "anonymous": false,
      "inputs": [
        {
          "indexed": false,
          "internalType": "address",
          "name": "account",
          "type": "address"
        }
      ],
      "name": "Paused",
      "type": "event"
    },
    {
      "anonymous": false,
      "inputs": [
        {
          "indexed": false,
          "internalType": "address",
          "name": "account",
          "type": "address"
        }
      ],
      "name": "Unpaused",
      "type": "event"
    },
    {
      "inputs": [
        {
          "internalType": "address",
          "name": "",
          "type": "address"
        }
      ],
      "name": "authorizedKeepers",
      "outputs": [
        {
          "internalType": "bool",
          "name": "",
          "type": "bool"
        }
      ],
      "stateMutability": "view",
      "type": "function"
    },
    {
      "inputs": [
        {
          "internalType": "bytes32",
          "name": "",
          "type": "bytes32"
        }
      ],
      "name": "chunkNonces",
      "outputs": [
        {
          "internalType": "uint256",
          "name": "",
          "type": "uint256"
        }
      ],
      "stateMutability": "view",
      "type": "function"
    },
    {
      "inputs": [
        {
          "internalType": "bytes32",
          "name": "",
          "type": "bytes32"
        }
      ],
      "name": "chunkStats",
      "outputs": [
        {
          "internalType": "uint256",
          "name": "totalChunks",
          "type": "uint256"
        },
        {
          "internalType": "uint256",
          "name": "averageFillTime",
          "type": "uint256"
        },
        {
          "internalType": "uint256",
          "name": "totalFillTime",
          "type": "uint256"
        },
        {
          "internalType": "uint256",
          "name": "fastFills",
          "type": "uint256"
        },
        {
          "internalType": "uint256",
          "name": "slowFills",
          "type": "uint256"
        }
      ],
      "stateMutability": "view",
      "type": "function"
    },
    {
      "inputs": [
        {
          "internalType": "bytes32",
          "name": "orderHash",
          "type": "bytes32"
        },
        {
          "internalType": "address",
          "name": "orderMaker",
          "type": "address"
        },
        {
          "components": [
            {
              "internalType": "uint256",
              "name": "totalMakingAmount",
              "type": "uint256"
            },
            {
              "internalType": "uint256",
              "name": "totalTakingAmount",
              "type": "uint256"
            },
            {
              "internalType": "uint256",
              "name": "currentVisibleAmount",
              "type": "uint256"
            },
            {
              "internalType": "uint256",
              "name": "filledAmount",
              "type": "uint256"
            },
            {
              "internalType": "uint256",
              "name": "baseChunkSize",
              "type": "uint256"
            },
            {
              "internalType": "enum IcebergOrderV1.RevealStrategy",
              "name": "strategy",
              "type": "uint8"
            },
            {
              "internalType": "uint256",
              "name": "maxVisiblePercent",
              "type": "uint256"
            },
            {
              "internalType": "uint256",
              "name": "revealInterval",
              "type": "uint256"
            },
            {
              "internalType": "uint256",
              "name": "lastRevealTime",
              "type": "uint256"
            },
            {
              "internalType": "uint256",
              "name": "lastFillTime",
              "type": "uint256"
            },
            {
              "internalType": "uint256",
              "name": "minPriceImprovement",
              "type": "uint256"
            },
            {
              "internalType": "uint256",
              "name": "lastPrice",
              "type": "uint256"
            },
            {
              "internalType": "address",
              "name": "orderMaker",
              "type": "address"
            },
            {
              "internalType": "bool",
              "name": "isActive",
              "type": "bool"
            },
            {
              "internalType": "uint256",
              "name": "configuredAt",
              "type": "uint256"
            },
            {
              "internalType": "uint8",
              "name": "makerTokenDecimals",
              "type": "uint8"
            },
            {
              "internalType": "uint8",
              "name": "takerTokenDecimals",
              "type": "uint8"
            }
          ],
          "internalType": "struct IcebergOrderV1.IcebergConfig",
          "name": "config",
          "type": "tuple"
        }
      ],
      "name": "configureIceberg",
      "outputs": [],
      "stateMutability": "nonpayable",
      "type": "function"
    },
    {
      "inputs": [
        {
          "internalType": "address",
          "name": "token",
          "type": "address"
        },
        {
          "internalType": "address",
          "name": "to",
          "type": "address"
        },
        {
          "internalType": "uint256",
          "name": "amount",
          "type": "uint256"
        }
      ],
      "name": "emergencyRecoverToken",
      "outputs": [],
      "stateMutability": "nonpayable",
      "type": "function"
    },
    {
      "inputs": [
        {
          "internalType": "bytes32",
          "name": "orderHash",
          "type": "bytes32"
        }
      ],
      "name": "getCurrentChunkInfo",
      "outputs": [
        {
          "internalType": "uint256",
          "name": "chunkSize",
          "type": "uint256"
        },
        {
          "internalType": "uint256",
          "name": "filledAmount",
          "type": "uint256"
        },
        {
          "internalType": "uint256",
          "name": "remainingAmount",
          "type": "uint256"
        },
        {
          "internalType": "bool",
          "name": "isReady",
          "type": "bool"
        }
      ],
      "stateMutability": "view",
      "type": "function"
    },
    {
      "inputs": [
        {
          "components": [
            {
              "internalType": "uint256",
              "name": "salt",
              "type": "uint256"
            },
            {
              "internalType": "Address",
              "name": "maker",
              "type": "uint256"
            },
            {
              "internalType": "Address",
              "name": "receiver",
              "type": "uint256"
            },
            {
              "internalType": "Address",
              "name": "makerAsset",
              "type": "uint256"
            },
            {
              "internalType": "Address",
              "name": "takerAsset",
              "type": "uint256"
            },
            {
              "internalType": "uint256",
              "name": "makingAmount",
              "type": "uint256"
            },
            {
              "internalType": "uint256",
              "name": "takingAmount",
              "type": "uint256"
            },
            {
              "internalType": "MakerTraits",
              "name": "makerTraits",
              "type": "uint256"
            }
          ],
          "internalType": "struct IOrderMixin.Order",
          "name": "order",
          "type": "tuple"
        },
        {
          "internalType": "bytes",
          "name": "extension",
          "type": "bytes"
        },
        {
          "internalType": "bytes32",
          "name": "orderHash",
          "type": "bytes32"
        },
        {
          "internalType": "address",
          "name": "taker",
          "type": "address"
        },
        {
          "internalType": "uint256",
          "name": "takingAmount",
          "type": "uint256"
        },
        {
          "internalType": "uint256",
          "name": "remainingMakingAmount",
          "type": "uint256"
        },
        {
          "internalType": "bytes",
          "name": "extraData",
          "type": "bytes"
        }
      ],
      "name": "getMakingAmount",
      "outputs": [
        {
          "internalType": "uint256",
          "name": "",
          "type": "uint256"
        }
      ],
      "stateMutability": "view",
      "type": "function"
    },
    {
      "inputs": [
        {
          "components": [
            {
              "internalType": "uint256",
              "name": "salt",
              "type": "uint256"
            },
            {
              "internalType": "Address",
              "name": "maker",
              "type": "uint256"
            },
            {
              "internalType": "Address",
              "name": "receiver",
              "type": "uint256"
            },
            {
              "internalType": "Address",
              "name": "makerAsset",
              "type": "uint256"
            },
            {
              "internalType": "Address",
              "name": "takerAsset",
              "type": "uint256"
            },
            {
              "internalType": "uint256",
              "name": "makingAmount",
              "type": "uint256"
            },
            {
              "internalType": "uint256",
              "name": "takingAmount",
              "type": "uint256"
            },
            {
              "internalType": "MakerTraits",
              "name": "makerTraits",
              "type": "uint256"
            }
          ],
          "internalType": "struct IOrderMixin.Order",
          "name": "order",
          "type": "tuple"
        },
        {
          "internalType": "bytes",
          "name": "extension",
          "type": "bytes"
        },
        {
          "internalType": "bytes32",
          "name": "orderHash",
          "type": "bytes32"
        },
        {
          "internalType": "address",
          "name": "taker",
          "type": "address"
        },
        {
          "internalType": "uint256",
          "name": "makingAmount",
          "type": "uint256"
        },
        {
          "internalType": "uint256",
          "name": "remainingMakingAmount",
          "type": "uint256"
        },
        {
          "internalType": "bytes",
          "name": "extraData",
          "type": "bytes"
        }
      ],
      "name": "getTakingAmount",
      "outputs": [
        {
          "internalType": "uint256",
          "name": "",
          "type": "uint256"
        }
      ],
      "stateMutability": "view",
      "type": "function"
    },
    {
      "inputs": [
        {
          "internalType": "bytes32",
          "name": "",
          "type": "bytes32"
        }
      ],
      "name": "icebergConfigs",
      "outputs": [
        {
          "internalType": "uint256",
          "name": "totalMakingAmount",
          "type": "uint256"
        },
        {
          "internalType": "uint256",
          "name": "totalTakingAmount",
          "type": "uint256"
        },
        {
          "internalType": "uint256",
          "name": "currentVisibleAmount",
          "type": "uint256"
        },
        {
          "internalType": "uint256",
          "name": "filledAmount",
          "type": "uint256"
        },
        {
          "internalType": "uint256",
          "name": "baseChunkSize",
          "type": "uint256"
        },
        {
          "internalType": "enum IcebergOrderV1.RevealStrategy",
          "name": "strategy",
          "type": "uint8"
        },
        {
          "internalType": "uint256",
          "name": "maxVisiblePercent",
          "type": "uint256"
        },
        {
          "internalType": "uint256",
          "name": "revealInterval",
          "type": "uint256"
        },
        {
          "internalType": "uint256",
          "name": "lastRevealTime",
          "type": "uint256"
        },
        {
          "internalType": "uint256",
          "name": "lastFillTime",
          "type": "uint256"
        },
        {
          "internalType": "uint256",
          "name": "minPriceImprovement",
          "type": "uint256"
        },
        {
          "internalType": "uint256",
          "name": "lastPrice",
          "type": "uint256"
        },
        {
          "internalType": "address",
          "name": "orderMaker",
          "type": "address"
        },
        {
          "internalType": "bool",
          "name": "isActive",
          "type": "bool"
        },
        {
          "internalType": "uint256",
          "name": "configuredAt",
          "type": "uint256"
        },
        {
          "internalType": "uint8",
          "name": "makerTokenDecimals",
          "type": "uint8"
        },
        {
          "internalType": "uint8",
          "name": "takerTokenDecimals",
          "type": "uint8"
        }
      ],
      "stateMutability": "view",
      "type": "function"
    },
    {
      "inputs": [
        {
          "internalType": "bytes32",
          "name": "orderHash",
          "type": "bytes32"
        }
      ],
      "name": "isIcebergCompleted",
      "outputs": [
        {
          "internalType": "bool",
          "name": "completed",
          "type": "bool"
        },
        {
          "internalType": "uint256",
          "name": "fillPercentage",
          "type": "uint256"
        }
      ],
      "stateMutability": "view",
      "type": "function"
    },
    {
      "inputs": [],
      "name": "limitOrderProtocol",
      "outputs": [
        {
          "internalType": "address",
          "name": "",
          "type": "address"
        }
      ],
      "stateMutability": "view",
      "type": "function"
    },
    {
      "inputs": [],
      "name": "owner",
      "outputs": [
        {
          "internalType": "address",
          "name": "",
          "type": "address"
        }
      ],
      "stateMutability": "view",
      "type": "function"
    },
    {
      "inputs": [],
      "name": "pause",
      "outputs": [],
      "stateMutability": "nonpayable",
      "type": "function"
    },
    {
      "inputs": [],
      "name": "paused",
      "outputs": [
        {
          "internalType": "bool",
          "name": "",
          "type": "bool"
        }
      ],
      "stateMutability": "view",
      "type": "function"
    },
    {
      "inputs": [
        {
          "components": [
            {
              "internalType": "uint256",
              "name": "salt",
              "type": "uint256"
            },
            {
              "internalType": "Address",
              "name": "maker",
              "type": "uint256"
            },
            {
              "internalType": "Address",
              "name": "receiver",
              "type": "uint256"
            },
            {
              "internalType": "Address",
              "name": "makerAsset",
              "type": "uint256"
            },
            {
              "internalType": "Address",
              "name": "takerAsset",
              "type": "uint256"
            },
            {
              "internalType": "uint256",
              "name": "makingAmount",
              "type": "uint256"
            },
            {
              "internalType": "uint256",
              "name": "takingAmount",
              "type": "uint256"
            },
            {
              "internalType": "MakerTraits",
              "name": "makerTraits",
              "type": "uint256"
            }
          ],
          "internalType": "struct IOrderMixin.Order",
          "name": "",
          "type": "tuple"
        },
        {
          "internalType": "bytes",
          "name": "",
          "type": "bytes"
        },
        {
          "internalType": "bytes32",
          "name": "orderHash",
          "type": "bytes32"
        },
        {
          "internalType": "address",
          "name": "",
          "type": "address"
        },
        {
          "internalType": "uint256",
          "name": "makingAmount",
          "type": "uint256"
        },
        {
          "internalType": "uint256",
          "name": "",
          "type": "uint256"
        },
        {
          "internalType": "uint256",
          "name": "",
          "type": "uint256"
        },
        {
          "internalType": "bytes",
          "name": "",
          "type": "bytes"
        }
      ],
      "name": "preInteraction",
      "outputs": [],
      "stateMutability": "view",
      "type": "function"
    },
    {
      "inputs": [
        {
          "internalType": "bytes32",
          "name": "orderHash",
          "type": "bytes32"
        }
      ],
      "name": "removeIcebergConfig",
      "outputs": [],
      "stateMutability": "nonpayable",
      "type": "function"
    },
    {
      "inputs": [],
      "name": "renounceOwnership",
      "outputs": [],
      "stateMutability": "nonpayable",
      "type": "function"
    },
    {
      "inputs": [
        {
          "internalType": "bytes32",
          "name": "orderHash",
          "type": "bytes32"
        }
      ],
      "name": "revealNextChunk",
      "outputs": [],
      "stateMutability": "nonpayable",
      "type": "function"
    },
    {
      "inputs": [
        {
          "internalType": "address",
          "name": "keeper",
          "type": "address"
        },
        {
          "internalType": "bool",
          "name": "authorized",
          "type": "bool"
        }
      ],
      "name": "setKeeperAuthorization",
      "outputs": [],
      "stateMutability": "nonpayable",
      "type": "function"
    },
    {
      "inputs": [
        {
          "components": [
            {
              "internalType": "uint256",
              "name": "salt",
              "type": "uint256"
            },
            {
              "internalType": "Address",
              "name": "maker",
              "type": "uint256"
            },
            {
              "internalType": "Address",
              "name": "receiver",
              "type": "uint256"
            },
            {
              "internalType": "Address",
              "name": "makerAsset",
              "type": "uint256"
            },
            {
              "internalType": "Address",
              "name": "takerAsset",
              "type": "uint256"
            },
            {
              "internalType": "uint256",
              "name": "makingAmount",
              "type": "uint256"
            },
            {
              "internalType": "uint256",
              "name": "takingAmount",
              "type": "uint256"
            },
            {
              "internalType": "MakerTraits",
              "name": "makerTraits",
              "type": "uint256"
            }
          ],
          "internalType": "struct IOrderMixin.Order",
          "name": "",
          "type": "tuple"
        },
        {
          "internalType": "bytes",
          "name": "",
          "type": "bytes"
        },
        {
          "internalType": "bytes32",
          "name": "orderHash",
          "type": "bytes32"
        },
        {
          "internalType": "address",
          "name": "",
          "type": "address"
        },
        {
          "internalType": "uint256",
          "name": "makingAmount",
          "type": "uint256"
        },
        {
          "internalType": "uint256",
          "name": "takingAmount",
          "type": "uint256"
        },
        {
          "internalType": "uint256",
          "name": "",
          "type": "uint256"
        },
        {
          "internalType": "bytes",
          "name": "",
          "type": "bytes"
        }
      ],
      "name": "takerInteraction",
      "outputs": [],
      "stateMutability": "nonpayable",
      "type": "function"
    },
    {
      "inputs": [
        {
          "internalType": "address",
          "name": "newOwner",
          "type": "address"
        }
      ],
      "name": "transferOwnership",
      "outputs": [],
      "stateMutability": "nonpayable",
      "type": "function"
    },
    {
      "inputs": [],
      "name": "unpause",
      "outputs": [],
      "stateMutability": "nonpayable",
      "type": "function"
    }
  ],
  "bytecode": "0x60a0346100ef57601f620024cf38819003918201601f19168301916001600160401b038311848410176100f3578084926020946040528339810103126100ef57516001600160a01b038082168083036100ef5733156100d7575f5460405192339082167f8be0079c531659141344cd1fd0a4f28419497f9722a3daafe3b4186f6b6457e05f80a36001600160a81b0319163360ff60a01b1916175f5560018055156100c857506080526040516123c79081620001088239608051818181610b5e015261155c0152f35b63692d508360e11b8152600490fd5b604051631e4fbdf760e01b81525f6004820152602490fd5b5f80fd5b634e487b7160e01b5f52604160045260245ffdfe6080604052600480361015610012575f80fd5b5f3560e01c80630986bdd514610fe257806315800f7c14610edb5780631d9671c314610eb95780632e8c405c14610d665780633f4ba83a14610ca85780635c975abb14610c66578063650b202014610c1c578063715018a614610b825780637f94dd3314610b145780638456cb5914610a6d5780638da5cb5b14610a1d5780639c2269d1146108f5578063a878b35c14610880578063adf38ba11461084a578063b2a6382014610803578063c51b131014610491578063c56f264d1461042a578063d7ff8a8014610400578063eee81ff914610339578063f2fde38b14610259578063fbebc1ed146102035763fdcc35bd1461010c575f80fd5b346101ff5760607ffffffffffffffffffffffffffffffffffffffffffffffffffffffffffffffffc3601126101ff5761014361105d565b60205f604473ffffffffffffffffffffffffffffffffffffffff61016561103a565b9461016e611afc565b1693604051907fa9059cbb000000000000000000000000000000000000000000000000000000008252868201528135602482015282855af190816101dd575b50156101b557005b6040517ffb7f5079000000000000000000000000000000000000000000000000000000008152fd5b90503d156101f7575060015f5114601f3d11165b5f6101ad565b3b15156101f1565b5f80fd5b50346101ff5760207ffffffffffffffffffffffffffffffffffffffffffffffffffffffffffffffffc3601126101ff5761023f608091356116fa565b916040519384526020840152604083015215156060820152f35b50346101ff5760207ffffffffffffffffffffffffffffffffffffffffffffffffffffffffffffffffc3601126101ff5761029161105d565b610299611afc565b73ffffffffffffffffffffffffffffffffffffffff80911691821561030957505f54827fffffffffffffffffffffffff00000000000000000000000000000000000000008216175f55167f8be0079c531659141344cd1fd0a4f28419497f9722a3daafe3b4186f6b6457e05f80a3005b6024905f604051917f1e4fbdf7000000000000000000000000000000000000000000000000000000008352820152fd5b50346101ff5760407ffffffffffffffffffffffffffffffffffffffffffffffffffffffffffffffffc3601126101ff5761037161105d565b602435908115158092036101ff577fd370523e7a29cc54b0e1e6b66ffeb47a2c0d6e37b090e2da19993c7282da39ac9173ffffffffffffffffffffffffffffffffffffffff6020926103c1611afc565b1693845f52825260405f207fffffffffffffffffffffffffffffffffffffffffffffffffffffffffffffff0081541660ff8316179055604051908152a2005b346101ff5760206104226104133661112d565b97969096959195949294611cec565b604051908152f35b50346101ff5760207ffffffffffffffffffffffffffffffffffffffffffffffffffffffffffffffffc3601126101ff5773ffffffffffffffffffffffffffffffffffffffff61047761105d565b165f52602052602060ff60405f2054166040519015158152f35b50346101ff576102607ffffffffffffffffffffffffffffffffffffffffffffffffffffffffffffffffc3601126101ff5780356104cc61103a565b6102207fffffffffffffffffffffffffffffffffffffffffffffffffffffffffffffffbc3601126101ff5773ffffffffffffffffffffffffffffffffffffffff16918233036107db576044359081156107b35760c435801580156107aa575b610706576101043591600a8310801561079f575b6107775761012435603c8110801561076c575b61074357601260ff6105626116cb565b1611801561072f575b6107065760e43593828510156101ff57610584856111d3565b600385116106dd57917fcdc69b50062c7d3e6251701eef87a254739c53404f0f2cb7979f9d2e7e9c60fb95939160609593885f5260026020528360405f20938785556064356001860155840155600583016105de866111d3565b7fffffffffffffffffffffffffffffffffffffffffffffffffffffffffffffff0081541660ff87161790556006830155600782015561018435600a820155600c810174010000000000000000000000000000000000000000897fffffffffffffffffffffff0000000000000000000000000000000000000000008354161717905542600d8201554260088201556106736116cb565b600e82019081547fffffffffffffffffffffffffffffffffffffffffffffffffffffffffffff000060ff61ff006106a86116dc565b60081b16931691161717905560026106be611c8a565b91015560405192835260208301526106d5816111d3565b6040820152a3005b826040517ffa63873f000000000000000000000000000000000000000000000000000000008152fd5b506040517fcb4436f4000000000000000000000000000000000000000000000000000000008152fd5b50601260ff61073c6116dc565b161161056b565b506040517ff2a40083000000000000000000000000000000000000000000000000000000008152fd5b50610e108111610552565b6040517fcb4436f4000000000000000000000000000000000000000000000000000000008152fd5b506103e8831161053f565b5082811161052b565b6040517f908128d4000000000000000000000000000000000000000000000000000000008152fd5b6040517f5c427cd9000000000000000000000000000000000000000000000000000000008152fd5b50346101ff5760207ffffffffffffffffffffffffffffffffffffffffffffffffffffffffffffffffc3601126101ff57355f526005602052602060405f2054604051908152f35b346101ff5761087a61085b36611080565b5050509550935050905061086d6119b7565b61087561176b565b611543565b60018055005b50346101ff5760207ffffffffffffffffffffffffffffffffffffffffffffffffffffffffffffffffc3601126101ff578060a091355f52600360205260405f20908154916001810154916002820154906003830154920154926040519485526020850152604084015260608301526080820152f35b50346101ff5760207ffffffffffffffffffffffffffffffffffffffffffffffffffffffffffffffffc3601126101ff5780355f52600260205260405f20805490600181015492600282015490600383015490830154600584015460ff1660068501546007860154600887015491600988015493600a89015495600b8a015497600c8b015499600d8c01549b600e01549c6040519e8f91825260208201526040015260608d015260808c01526109a9816111d3565b60a08b015260c08a015260e089015261010088015261012087015261014086015261016085015273ffffffffffffffffffffffffffffffffffffffff811661018085015260a01c60ff1615156101a08401526101c083015260ff81166101e083015260081c60ff1661020082015261022090f35b346101ff575f7ffffffffffffffffffffffffffffffffffffffffffffffffffffffffffffffffc3601126101ff57602073ffffffffffffffffffffffffffffffffffffffff5f5416604051908152f35b346101ff575f7ffffffffffffffffffffffffffffffffffffffffffffffffffffffffffffffffc3601126101ff57610aa3611afc565b610aab61176b565b740100000000000000000000000000000000000000007fffffffffffffffffffffff00ffffffffffffffffffffffffffffffffffffffff5f5416175f557f62e78cea01bee320cd4e420270b5ea74000d11b0c9f74754ebdbfc544b05a2586020604051338152a1005b346101ff575f7ffffffffffffffffffffffffffffffffffffffffffffffffffffffffffffffffc3601126101ff57602060405173ffffffffffffffffffffffffffffffffffffffff7f0000000000000000000000000000000000000000000000000000000000000000168152f35b346101ff575f7ffffffffffffffffffffffffffffffffffffffffffffffffffffffffffffffffc3601126101ff57610bb8611afc565b5f73ffffffffffffffffffffffffffffffffffffffff81547fffffffffffffffffffffffff000000000000000000000000000000000000000081168355167f8be0079c531659141344cd1fd0a4f28419497f9722a3daafe3b4186f6b6457e08280a3005b50346101ff5760207ffffffffffffffffffffffffffffffffffffffffffffffffffffffffffffffffc3601126101ff57610c58604091356114ca565b825191151582526020820152f35b346101ff575f7ffffffffffffffffffffffffffffffffffffffffffffffffffffffffffffffffc3601126101ff57602060ff5f5460a01c166040519015158152f35b50346101ff575f7ffffffffffffffffffffffffffffffffffffffffffffffffffffffffffffffffc3601126101ff57610cdf611afc565b5f5460ff8160a01c1615610d3d577fffffffffffffffffffffff00ffffffffffffffffffffffffffffffffffffffff165f557f5db9ee0a495bf2e6ff9c91a7834c1ba4fdd244a5e8aa4e537bd38aeae4b073aa6020604051338152a1005b506040517f8dfc202b000000000000000000000000000000000000000000000000000000008152fd5b50346101ff5760207ffffffffffffffffffffffffffffffffffffffffffffffffffffffffffffffffc3601126101ff578035805f526002602052610dac60405f20611294565b6101c081015115610e90576101a0015115610e6757610dc96119b7565b805f526002602052610180610de060405f20611294565b01513373ffffffffffffffffffffffffffffffffffffffff91821614159081610e4f575b81610e41575b50610e185761087a906119f2565b506040517f5c427cd9000000000000000000000000000000000000000000000000000000008152fd5b90505f54163314155f610e0a565b9050335f528260205260ff60405f2054161590610e04565b506040517f0f4d2682000000000000000000000000000000000000000000000000000000008152fd5b826040517f01e25a49000000000000000000000000000000000000000000000000000000008152fd5b346101ff576020610422610ecc3661112d565b97969096959195949294611943565b50346101ff5760207ffffffffffffffffffffffffffffffffffffffffffffffffffffffffffffffffc3601126101ff578035805f526002602052610180610f2460405f20611294565b01513373ffffffffffffffffffffffffffffffffffffffff91821614159081610fd4575b50610e1857905f918252600260205281600e60408220828155826001820155826002820155826003820155828482015582600582015582600682015582600782015582600882015582600982015582600a82015582600b82015582600c82015582600d820155015560036020526040822082815582600182015582600282015582600382015501555f80f35b90505f54163314155f610f48565b346101ff5761100a610ff336611080565b5050505094505091505061100561176b565b6113c5565b005b9181601f840112156101ff5782359167ffffffffffffffff83116101ff57602083818601950101116101ff57565b6024359073ffffffffffffffffffffffffffffffffffffffff821682036101ff57565b6004359073ffffffffffffffffffffffffffffffffffffffff821682036101ff57565b7ffffffffffffffffffffffffffffffffffffffffffffffffffffffffffffffffc81016101e081126101ff57610100136101ff5760049167ffffffffffffffff610104358181116101ff57836110d89160040161100c565b9390939261012435926101443573ffffffffffffffffffffffffffffffffffffffff811681036101ff5792610164359261018435926101a435926101c4359182116101ff576111299160040161100c565b9091565b907ffffffffffffffffffffffffffffffffffffffffffffffffffffffffffffffffc82016101c081126101ff57610100136101ff5760049167ffffffffffffffff90610104358281116101ff57816111879160040161100c565b9390939261012435926101443573ffffffffffffffffffffffffffffffffffffffff811681036101ff5792610164359261018435926101a4359182116101ff576111299160040161100c565b600411156111dd57565b7f4e487b71000000000000000000000000000000000000000000000000000000005f52602160045260245ffd5b60a0810190811067ffffffffffffffff82111761122657604052565b7f4e487b71000000000000000000000000000000000000000000000000000000005f52604160045260245ffd5b90601f7fffffffffffffffffffffffffffffffffffffffffffffffffffffffffffffffe0910116810190811067ffffffffffffffff82111761122657604052565b90604051610220810181811067ffffffffffffffff8211176112265760405261020060ff600e83958054855260018101546020860152600281015460408601526003810154606086015260048101546080860152826005820154166112f8816111d3565b60a0860152600681015460c0860152600781015460e086015260088101546101008601526009810154610120860152600a810154610140860152600b81015461016086015282600c82015473ffffffffffffffffffffffffffffffffffffffff811661018088015260a01c1615156101a0860152600d8101546101c086015201548181166101e085015260081c16910152565b9190820180921161139857565b7f4e487b71000000000000000000000000000000000000000000000000000000005f52601160045260245ffd5b5f5260026020526113d860405f20611294565b906101c08201511561148f576101a082015115611465576113f8826117a3565b1061143b57600360a082015161140d816111d3565b611416816111d3565b1461141e5750565b8060e06101006114339301519101519061138b565b421061143b57565b60046040517fa94feb19000000000000000000000000000000000000000000000000000000008152fd5b60046040517f0f4d2682000000000000000000000000000000000000000000000000000000008152fd5b5050565b811561149d570490565b7f4e487b71000000000000000000000000000000000000000000000000000000005f52601260045260245ffd5b5f5260026020526114dd60405f20611294565b906101c08201511561153c576101a082015115801561152d575b8251909290156115285760608101516127109081810291818304149015171561139857611525915190611493565b90565b505f90565b506060820151825111156114f7565b5f91508190565b909173ffffffffffffffffffffffffffffffffffffffff7f00000000000000000000000000000000000000000000000000000000000000001633036116a157815f52600260205260405f20600d8101541561169b5761163593839261162d7fcd8328116949e9c0ca8813835cd8b939c8f17b00894bbd9d76da04f65819eee49360036020526115e78460405f2094600384016115e083825461138b565b9055611d84565b9283600b60098401938454946115fd86426116ed565b95611637575b42905501555492604051948594859094939260609260808301968352602083015260408201520152565b0390a2611b79565b565b61165f6002860161164988825461138b565b8091556116568754611b4c565b90818855611493565b600186015561012c861015611683576003850161167c8154611b4c565b9055611603565b610708861115611603576004850161167c8154611b4c565b50505050565b60046040517fd25aa106000000000000000000000000000000000000000000000000000000008152fd5b6102243560ff811681036101ff5790565b6102443560ff811681036101ff5790565b9190820391821161139857565b5f52600260205261170d60405f20611294565b906101c08201511561176057611722826117a3565b916060810151918151838082115f146117585761173e916116ed565b6101a08193015115159081611751575090565b9050151590565b50505f61173e565b5f9150819081908190565b60ff5f5460a01c1661177957565b60046040517fd93c0665000000000000000000000000000000000000000000000000000000008152fd5b805160608201518082111561193a576117bb916116ed565b905b81156119345760a0810180516117d2816111d3565b6117db816111d3565b6117f05750608001515b818082109118021890565b600181516117fd816111d3565b611806816111d3565b0361181f575060c061181a91015182611edc565b6117e5565b6003905161182c816111d3565b611835816111d3565b0361188f5761185761184c6101c0830151426116ed565b60e083015190611493565b6064018060641161139857611873611881916080840151611e45565b9160c0815191015190611edc565b9081808210911802186117e5565b73ffffffffffffffffffffffffffffffffffffffff610180820151165f52600360205261188161187360405f206080604051916118cb8361120a565b805492838152600182015460208201526002820154604082015260046003830154928360608401520154928391015260808601519160649361190f575b5050611e45565b80821115611925575060969250505b5f80611908565b111561191e57604b915061191e565b50505f90565b50505f906117bd565b969493929190979597825f52600260205261196060405f20611294565b976101c0890151156119aa5750505050505050506101a081015115801561199b575b6119345761198f906117a3565b90818082109118021890565b50606081015181511115611982565b61152599969798506121d9565b6002600154146119c8576002600155565b60046040517f3ee5aeb5000000000000000000000000000000000000000000000000000000008152fd5b805f52600260205260405f20611a0f611a0a82611294565b6117a3565b8015611acf57806002830155426008830155825f52600360205260405f20604051611a398161120a565b6080600483549384845260018101546020850152600281015460408501526003810154606085015201549101526001810180911161139857611aca83611aa660037f975fb3de84eddef2c4223f06fb11e18aa75fb1583d2983781d3386ff07767ac99601548092546116ed565b90604051948594859094939260609260808301968352602083015260408201520152565b0390a2565b50600c0180547fffffffffffffffffffffff00ffffffffffffffffffffffffffffffffffffffff16905550565b73ffffffffffffffffffffffffffffffffffffffff5f54163303611b1c57565b60246040517f118cdaa7000000000000000000000000000000000000000000000000000000008152336004820152fd5b7fffffffffffffffffffffffffffffffffffffffffffffffffffffffffffffffff81146113985760010190565b805f5260026020526040805f20906003820154908254821015611bea5750600282015490811561149d5781611bc392611bb29206611f63565b91600760088201549101549061138b565b4210159081611bde575b50611bd55750565b611635906119f2565b605a915010155f611bcd565b90606091600c7f5a093aa8fb20bcae20939a5d8d52dc9a6b311b6c441571abea4db541c3cb24e494017fffffffffffffffffffffff00ffffffffffffffffffffffffffffffffffffffff81541690556003602052805f20908051611c4d8161120a565b82549081815260806004600186015495866020850152600281015486850152600381015489850152015491015281519384526020840152820152a2565b60e43560048110156101ff57611c9f816111d3565b80611cab575060c43590565b611cb4816111d3565b60018103611ccc575061152561010435604435611edc565b80611cd86003926111d3565b03611ce65760c43560011c90565b60c43590565b979593929190969496825f526002602052611d0960405f20611294565b986101c08a015115611d755750505050505050506101a0820151158015611d66575b611d405781602061152593015190519161201c565b50507fffffffffffffffffffffffffffffffffffffffffffffffffffffffffffffffff90565b50606082015182511115611d2b565b611525995097949596976122d2565b90670de0b6b3a764000090818302917fffffffffffffffffffffffffffffffffffffffffffffffffffffffffffffffff81850993838086109503948086039514611e385784831115611e205790829109815f038216809204600280826003021880830282030280830282030280830282030280830282030280830282030280920290030293600183805f03040190848311900302920304170290565b82634e487b715f52156003026011186020526024601cfd5b5050906115259250611493565b818102907fffffffffffffffffffffffffffffffffffffffffffffffffffffffffffffffff83820990828083109203918083039214611ed2578160641115611ec0577f5c28f5c28f5c28f5c28f5c28f5c28f5c28f5c28f5c28f5c28f5c28f5c28f5c29936064910990828211900360fe1b910360021c170290565b634e487b715f5260116020526024601cfd5b5050606491500490565b90808202907fffffffffffffffffffffffffffffffffffffffffffffffffffffffffffffffff81840990828083109203918083039214611f58576127109082821115611ec0577fbc01a36e2eb1c432ca57a786c226809d495182a9930be0ded288ce703afb7e91940990828211900360fc1b910360041c170290565b505061271091500490565b9060648202907fffffffffffffffffffffffffffffffffffffffffffffffffffffffffffffffff60648409928280851094039380850394146120105783821115611ff8576064829109815f038216809204600280826003021880830282030280830282030280830282030280830282030280830282030280920290030293600183805f03040190848311900302920304170290565b50634e487b715f52156003026011186020526024601cfd5b50906115259250611493565b91818302917fffffffffffffffffffffffffffffffffffffffffffffffffffffffffffffffff81850993838086109503948086039514611e385784831115611e205790829109815f038216809204600280826003021880830282030280830282030280830282030280830282030280830282030280920290030293600183805f03040190848311900302920304170290565b7fffffffffffffffffffffffffffffffffffffffff00000000000000000000000090358181169392601481106120e357505050565b60140360031b82901b16169150565b601f82602094937fffffffffffffffffffffffffffffffffffffffffffffffffffffffffffffffe093818652868601375f8582860101520116010190565b949073ffffffffffffffffffffffffffffffffffffffff926115259a98959997946121b19260e06101c09180358b52602081013560208c0152604081013560408c0152606081013560608c0152608081013560808c015260a081013560a08c015260c081013560c08c0152013560e08a0152806101008a01528801916120f2565b97610120860152166101408401526101608301526101808201526101a08185039101526120f2565b90979496939594929390601484106122b6576121f584836120ae565b60601c95846014116101ff576020986014987fffffffffffffffffffffffffffffffffffffffffffffffffffffffffffffffec97612267966040519d8e9c8d9b8c9b7f1d9671c3000000000000000000000000000000000000000000000000000000008d520198019660048b01612130565b03915afa9081156122ab575f9161227c575090565b90506020813d6020116122a3575b8161229760209383611253565b810103126101ff575190565b3d915061228a565b6040513d5f823e3d90fd5b9695505050505050611525925060a060c083013592013561201c565b9097949693959492939060148410612360576122ee84836120ae565b60601c95846014116101ff576020986014987fffffffffffffffffffffffffffffffffffffffffffffffffffffffffffffffec97612267966040519d8e9c8d9b8c9b7fd7ff8a80000000000000000000000000000000000000000000000000000000008d520198019660048b01612130565b975050505050505060a060c083013592013561237d81838561201c565b91811561149d57611525930915159061138b56fea2646970667358221220e30b1d3168673af97b3fde4b42e16a9c1c60d4c41c2cdac7304341f8d4e4b5d964736f6c63430008170033",
  "linkReferences": {},
  "deployedLinkReferences": {}
}