{
  "_format": "hh-sol-artifact-1",
  "contractName": "OCOOrderV1",
  "sourceName": "contracts/extensions/OCOOrderV1.sol",
  "abi": [
    {
      "inputs": [
        {
          "internalType": "address",
          "name": "_limitOrderProtocol",
          "type": "address"
        }
      ],
      "stateMutability": "nonpayable",
      "type": "constructor"
    },
    {
      "inputs": [],
      "name": "CancellationAlreadyRequested",
      "type": "error"
    },
    {
      "inputs": [],
      "name": "CancellationNotReady",
      "type": "error"
    },
    {
      "inputs": [],
      "name": "EnforcedPause",
      "type": "error"
    },
    {
      "inputs": [],
      "name": "ExpectedPause",
      "type": "error"
    },
    {
      "inputs": [],
      "name": "InvalidOCOConfiguration",
      "type": "error"
    },
    {
      "inputs": [],
      "name": "InvalidStrategy",
      "type": "error"
    },
    {
      "inputs": [],
      "name": "InvalidTimeLimit",
      "type": "error"
    },
    {
      "inputs": [],
      "name": "MaxGasPriceExceeded",
      "type": "error"
    },
    {
      "inputs": [],
      "name": "OCOAlreadyConfigured",
      "type": "error"
    },
    {
      "inputs": [],
      "name": "OCOExpired",
      "type": "error"
    },
    {
      "inputs": [],
      "name": "OCONotActive",
      "type": "error"
    },
    {
      "inputs": [],
      "name": "OCONotConfigured",
      "type": "error"
    },
    {
      "inputs": [],
      "name": "OrderAlreadyExecuted",
      "type": "error"
    },
    {
      "inputs": [
        {
          "internalType": "address",
          "name": "owner",
          "type": "address"
        }
      ],
      "name": "OwnableInvalidOwner",
      "type": "error"
    },
    {
      "inputs": [
        {
          "internalType": "address",
          "name": "account",
          "type": "address"
        }
      ],
      "name": "OwnableUnauthorizedAccount",
      "type": "error"
    },
    {
      "inputs": [],
      "name": "ReentrancyGuardReentrantCall",
      "type": "error"
    },
    {
      "inputs": [],
      "name": "SafeTransferFailed",
      "type": "error"
    },
    {
      "inputs": [],
      "name": "SameOrderHash",
      "type": "error"
    },
    {
      "inputs": [],
      "name": "UnauthorizedCaller",
      "type": "error"
    },
    {
      "inputs": [],
      "name": "UnauthorizedKeeper",
      "type": "error"
    },
    {
      "anonymous": false,
      "inputs": [
        {
          "indexed": true,
          "internalType": "bytes32",
          "name": "orderHash",
          "type": "bytes32"
        },
        {
          "indexed": true,
          "internalType": "bytes32",
          "name": "ocoId",
          "type": "bytes32"
        },
        {
          "indexed": true,
          "internalType": "address",
          "name": "processedBy",
          "type": "address"
        },
        {
          "indexed": false,
          "internalType": "uint256",
          "name": "timestamp",
          "type": "uint256"
        }
      ],
      "name": "CancellationProcessed",
      "type": "event"
    },
    {
      "anonymous": false,
      "inputs": [
        {
          "indexed": true,
          "internalType": "bytes32",
          "name": "orderHash",
          "type": "bytes32"
        },
        {
          "indexed": true,
          "internalType": "bytes32",
          "name": "ocoId",
          "type": "bytes32"
        },
        {
          "indexed": true,
          "internalType": "address",
          "name": "requestedBy",
          "type": "address"
        },
        {
          "indexed": false,
          "internalType": "uint256",
          "name": "timestamp",
          "type": "uint256"
        }
      ],
      "name": "CancellationRequested",
      "type": "event"
    },
    {
      "anonymous": false,
      "inputs": [
        {
          "indexed": true,
          "internalType": "address",
          "name": "token",
          "type": "address"
        },
        {
          "indexed": true,
          "internalType": "address",
          "name": "to",
          "type": "address"
        },
        {
          "indexed": false,
          "internalType": "uint256",
          "name": "amount",
          "type": "uint256"
        }
      ],
      "name": "EmergencyTokenRecovery",
      "type": "event"
    },
    {
      "anonymous": false,
      "inputs": [
        {
          "indexed": true,
          "internalType": "address",
          "name": "keeper",
          "type": "address"
        },
        {
          "indexed": false,
          "internalType": "bool",
          "name": "authorized",
          "type": "bool"
        }
      ],
      "name": "KeeperAuthorized",
      "type": "event"
    },
    {
      "anonymous": false,
      "inputs": [
        {
          "indexed": true,
          "internalType": "bytes32",
          "name": "ocoId",
          "type": "bytes32"
        },
        {
          "indexed": true,
          "internalType": "bytes32",
          "name": "primaryOrderHash",
          "type": "bytes32"
        },
        {
          "indexed": true,
          "internalType": "bytes32",
          "name": "secondaryOrderHash",
          "type": "bytes32"
        },
        {
          "indexed": false,
          "internalType": "address",
          "name": "orderMaker",
          "type": "address"
        },
        {
          "indexed": false,
          "internalType": "enum OCOOrderV1.OCOStrategy",
          "name": "strategy",
          "type": "uint8"
        }
      ],
      "name": "OCOConfigured",
      "type": "event"
    },
    {
      "anonymous": false,
      "inputs": [
        {
          "indexed": true,
          "internalType": "bytes32",
          "name": "ocoId",
          "type": "bytes32"
        },
        {
          "indexed": true,
          "internalType": "bytes32",
          "name": "executedOrderHash",
          "type": "bytes32"
        },
        {
          "indexed": true,
          "internalType": "bytes32",
          "name": "cancelledOrderHash",
          "type": "bytes32"
        },
        {
          "indexed": false,
          "internalType": "address",
          "name": "taker",
          "type": "address"
        },
        {
          "indexed": false,
          "internalType": "uint256",
          "name": "timestamp",
          "type": "uint256"
        }
      ],
      "name": "OCOExecuted",
      "type": "event"
    },
    {
      "anonymous": false,
      "inputs": [
        {
          "indexed": true,
          "internalType": "address",
          "name": "previousOwner",
          "type": "address"
        },
        {
          "indexed": true,
          "internalType": "address",
          "name": "newOwner",
          "type": "address"
        }
      ],
      "name": "OwnershipTransferred",
      "type": "event"
    },
    {
      "anonymous": false,
      "inputs": [
        {
          "indexed": false,
          "internalType": "address",
          "name": "account",
          "type": "address"
        }
      ],
      "name": "Paused",
      "type": "event"
    },
    {
      "anonymous": false,
      "inputs": [
        {
          "indexed": false,
          "internalType": "address",
          "name": "account",
          "type": "address"
        }
      ],
      "name": "Unpaused",
      "type": "event"
    },
    {
      "inputs": [
        {
          "internalType": "address",
          "name": "",
          "type": "address"
        }
      ],
      "name": "authorizedKeepers",
      "outputs": [
        {
          "internalType": "bool",
          "name": "",
          "type": "bool"
        }
      ],
      "stateMutability": "view",
      "type": "function"
    },
    {
      "inputs": [
        {
          "internalType": "bytes32[]",
          "name": "orderHashes",
          "type": "bytes32[]"
        },
        {
          "internalType": "MakerTraits[]",
          "name": "makerTraits",
          "type": "uint256[]"
        }
      ],
      "name": "batchProcessCancellations",
      "outputs": [],
      "stateMutability": "nonpayable",
      "type": "function"
    },
    {
      "inputs": [],
      "name": "cancellationDelay",
      "outputs": [
        {
          "internalType": "uint256",
          "name": "",
          "type": "uint256"
        }
      ],
      "stateMutability": "view",
      "type": "function"
    },
    {
      "inputs": [
        {
          "internalType": "bytes32",
          "name": "",
          "type": "bytes32"
        }
      ],
      "name": "cancellationRequests",
      "outputs": [
        {
          "internalType": "bytes32",
          "name": "orderHash",
          "type": "bytes32"
        },
        {
          "internalType": "bytes32",
          "name": "ocoId",
          "type": "bytes32"
        },
        {
          "internalType": "uint256",
          "name": "requestedAt",
          "type": "uint256"
        },
        {
          "internalType": "address",
          "name": "requestedBy",
          "type": "address"
        },
        {
          "internalType": "bool",
          "name": "processed",
          "type": "bool"
        }
      ],
      "stateMutability": "view",
      "type": "function"
    },
    {
      "inputs": [
        {
          "internalType": "bytes32",
          "name": "ocoId",
          "type": "bytes32"
        },
        {
          "components": [
            {
              "internalType": "bytes32",
              "name": "primaryOrderHash",
              "type": "bytes32"
            },
            {
              "internalType": "bytes32",
              "name": "secondaryOrderHash",
              "type": "bytes32"
            },
            {
              "internalType": "address",
              "name": "orderMaker",
              "type": "address"
            },
            {
              "internalType": "enum OCOOrderV1.OCOStrategy",
              "name": "strategy",
              "type": "uint8"
            },
            {
              "internalType": "bool",
              "name": "isPrimaryExecuted",
              "type": "bool"
            },
            {
              "internalType": "bool",
              "name": "isSecondaryExecuted",
              "type": "bool"
            },
            {
              "internalType": "bool",
              "name": "isActive",
              "type": "bool"
            },
            {
              "internalType": "uint256",
              "name": "configuredAt",
              "type": "uint256"
            },
            {
              "internalType": "address",
              "name": "authorizedKeeper",
              "type": "address"
            },
            {
              "internalType": "uint256",
              "name": "maxGasPrice",
              "type": "uint256"
            },
            {
              "internalType": "uint256",
              "name": "expiresAt",
              "type": "uint256"
            }
          ],
          "internalType": "struct OCOOrderV1.OCOConfig",
          "name": "config",
          "type": "tuple"
        }
      ],
      "name": "configureOCO",
      "outputs": [],
      "stateMutability": "nonpayable",
      "type": "function"
    },
    {
      "inputs": [
        {
          "internalType": "address",
          "name": "token",
          "type": "address"
        },
        {
          "internalType": "address",
          "name": "to",
          "type": "address"
        },
        {
          "internalType": "uint256",
          "name": "amount",
          "type": "uint256"
        }
      ],
      "name": "emergencyRecoverToken",
      "outputs": [],
      "stateMutability": "nonpayable",
      "type": "function"
    },
    {
      "inputs": [
        {
          "components": [
            {
              "internalType": "uint256",
              "name": "salt",
              "type": "uint256"
            },
            {
              "internalType": "Address",
              "name": "maker",
              "type": "uint256"
            },
            {
              "internalType": "Address",
              "name": "receiver",
              "type": "uint256"
            },
            {
              "internalType": "Address",
              "name": "makerAsset",
              "type": "uint256"
            },
            {
              "internalType": "Address",
              "name": "takerAsset",
              "type": "uint256"
            },
            {
              "internalType": "uint256",
              "name": "makingAmount",
              "type": "uint256"
            },
            {
              "internalType": "uint256",
              "name": "takingAmount",
              "type": "uint256"
            },
            {
              "internalType": "MakerTraits",
              "name": "makerTraits",
              "type": "uint256"
            }
          ],
          "internalType": "struct IOrderMixin.Order",
          "name": "order",
          "type": "tuple"
        },
        {
          "internalType": "bytes",
          "name": "extension",
          "type": "bytes"
        },
        {
          "internalType": "bytes32",
          "name": "orderHash",
          "type": "bytes32"
        },
        {
          "internalType": "address",
          "name": "taker",
          "type": "address"
        },
        {
          "internalType": "uint256",
          "name": "takingAmount",
          "type": "uint256"
        },
        {
          "internalType": "uint256",
          "name": "remainingMakingAmount",
          "type": "uint256"
        },
        {
          "internalType": "bytes",
          "name": "extraData",
          "type": "bytes"
        }
      ],
      "name": "getMakingAmount",
      "outputs": [
        {
          "internalType": "uint256",
          "name": "",
          "type": "uint256"
        }
      ],
      "stateMutability": "view",
      "type": "function"
    },
    {
      "inputs": [
        {
          "internalType": "bytes32",
          "name": "ocoId",
          "type": "bytes32"
        }
      ],
      "name": "getOCOConfig",
      "outputs": [
        {
          "components": [
            {
              "internalType": "bytes32",
              "name": "primaryOrderHash",
              "type": "bytes32"
            },
            {
              "internalType": "bytes32",
              "name": "secondaryOrderHash",
              "type": "bytes32"
            },
            {
              "internalType": "address",
              "name": "orderMaker",
              "type": "address"
            },
            {
              "internalType": "enum OCOOrderV1.OCOStrategy",
              "name": "strategy",
              "type": "uint8"
            },
            {
              "internalType": "bool",
              "name": "isPrimaryExecuted",
              "type": "bool"
            },
            {
              "internalType": "bool",
              "name": "isSecondaryExecuted",
              "type": "bool"
            },
            {
              "internalType": "bool",
              "name": "isActive",
              "type": "bool"
            },
            {
              "internalType": "uint256",
              "name": "configuredAt",
              "type": "uint256"
            },
            {
              "internalType": "address",
              "name": "authorizedKeeper",
              "type": "address"
            },
            {
              "internalType": "uint256",
              "name": "maxGasPrice",
              "type": "uint256"
            },
            {
              "internalType": "uint256",
              "name": "expiresAt",
              "type": "uint256"
            }
          ],
          "internalType": "struct OCOOrderV1.OCOConfig",
          "name": "config",
          "type": "tuple"
        }
      ],
      "stateMutability": "view",
      "type": "function"
    },
    {
      "inputs": [
        {
          "internalType": "bytes32",
          "name": "orderHash",
          "type": "bytes32"
        }
      ],
      "name": "getOrderOCOStatus",
      "outputs": [
        {
          "internalType": "bool",
          "name": "isOCO",
          "type": "bool"
        },
        {
          "internalType": "bytes32",
          "name": "ocoId",
          "type": "bytes32"
        },
        {
          "internalType": "bool",
          "name": "isActive",
          "type": "bool"
        }
      ],
      "stateMutability": "view",
      "type": "function"
    },
    {
      "inputs": [
        {
          "internalType": "uint256",
          "name": "maxCount",
          "type": "uint256"
        }
      ],
      "name": "getPendingCancellations",
      "outputs": [
        {
          "internalType": "bytes32[]",
          "name": "orderHashes",
          "type": "bytes32[]"
        },
        {
          "internalType": "uint256",
          "name": "count",
          "type": "uint256"
        }
      ],
      "stateMutability": "view",
      "type": "function"
    },
    {
      "inputs": [
        {
          "components": [
            {
              "internalType": "uint256",
              "name": "salt",
              "type": "uint256"
            },
            {
              "internalType": "Address",
              "name": "maker",
              "type": "uint256"
            },
            {
              "internalType": "Address",
              "name": "receiver",
              "type": "uint256"
            },
            {
              "internalType": "Address",
              "name": "makerAsset",
              "type": "uint256"
            },
            {
              "internalType": "Address",
              "name": "takerAsset",
              "type": "uint256"
            },
            {
              "internalType": "uint256",
              "name": "makingAmount",
              "type": "uint256"
            },
            {
              "internalType": "uint256",
              "name": "takingAmount",
              "type": "uint256"
            },
            {
              "internalType": "MakerTraits",
              "name": "makerTraits",
              "type": "uint256"
            }
          ],
          "internalType": "struct IOrderMixin.Order",
          "name": "order",
          "type": "tuple"
        },
        {
          "internalType": "bytes",
          "name": "extension",
          "type": "bytes"
        },
        {
          "internalType": "bytes32",
          "name": "orderHash",
          "type": "bytes32"
        },
        {
          "internalType": "address",
          "name": "taker",
          "type": "address"
        },
        {
          "internalType": "uint256",
          "name": "makingAmount",
          "type": "uint256"
        },
        {
          "internalType": "uint256",
          "name": "remainingMakingAmount",
          "type": "uint256"
        },
        {
          "internalType": "bytes",
          "name": "extraData",
          "type": "bytes"
        }
      ],
      "name": "getTakingAmount",
      "outputs": [
        {
          "internalType": "uint256",
          "name": "",
          "type": "uint256"
        }
      ],
      "stateMutability": "view",
      "type": "function"
    },
    {
      "inputs": [],
      "name": "limitOrderProtocol",
      "outputs": [
        {
          "internalType": "address",
          "name": "",
          "type": "address"
        }
      ],
      "stateMutability": "view",
      "type": "function"
    },
    {
      "inputs": [
        {
          "internalType": "bytes32",
          "name": "",
          "type": "bytes32"
        }
      ],
      "name": "ocoConfigs",
      "outputs": [
        {
          "internalType": "bytes32",
          "name": "primaryOrderHash",
          "type": "bytes32"
        },
        {
          "internalType": "bytes32",
          "name": "secondaryOrderHash",
          "type": "bytes32"
        },
        {
          "internalType": "address",
          "name": "orderMaker",
          "type": "address"
        },
        {
          "internalType": "enum OCOOrderV1.OCOStrategy",
          "name": "strategy",
          "type": "uint8"
        },
        {
          "internalType": "bool",
          "name": "isPrimaryExecuted",
          "type": "bool"
        },
        {
          "internalType": "bool",
          "name": "isSecondaryExecuted",
          "type": "bool"
        },
        {
          "internalType": "bool",
          "name": "isActive",
          "type": "bool"
        },
        {
          "internalType": "uint256",
          "name": "configuredAt",
          "type": "uint256"
        },
        {
          "internalType": "address",
          "name": "authorizedKeeper",
          "type": "address"
        },
        {
          "internalType": "uint256",
          "name": "maxGasPrice",
          "type": "uint256"
        },
        {
          "internalType": "uint256",
          "name": "expiresAt",
          "type": "uint256"
        }
      ],
      "stateMutability": "view",
      "type": "function"
    },
    {
      "inputs": [
        {
          "internalType": "bytes32",
          "name": "",
          "type": "bytes32"
        }
      ],
      "name": "orderToOCO",
      "outputs": [
        {
          "internalType": "bytes32",
          "name": "",
          "type": "bytes32"
        }
      ],
      "stateMutability": "view",
      "type": "function"
    },
    {
      "inputs": [],
      "name": "owner",
      "outputs": [
        {
          "internalType": "address",
          "name": "",
          "type": "address"
        }
      ],
      "stateMutability": "view",
      "type": "function"
    },
    {
      "inputs": [],
      "name": "pause",
      "outputs": [],
      "stateMutability": "nonpayable",
      "type": "function"
    },
    {
      "inputs": [],
      "name": "paused",
      "outputs": [
        {
          "internalType": "bool",
          "name": "",
          "type": "bool"
        }
      ],
      "stateMutability": "view",
      "type": "function"
    },
    {
      "inputs": [
        {
          "components": [
            {
              "internalType": "uint256",
              "name": "salt",
              "type": "uint256"
            },
            {
              "internalType": "Address",
              "name": "maker",
              "type": "uint256"
            },
            {
              "internalType": "Address",
              "name": "receiver",
              "type": "uint256"
            },
            {
              "internalType": "Address",
              "name": "makerAsset",
              "type": "uint256"
            },
            {
              "internalType": "Address",
              "name": "takerAsset",
              "type": "uint256"
            },
            {
              "internalType": "uint256",
              "name": "makingAmount",
              "type": "uint256"
            },
            {
              "internalType": "uint256",
              "name": "takingAmount",
              "type": "uint256"
            },
            {
              "internalType": "MakerTraits",
              "name": "makerTraits",
              "type": "uint256"
            }
          ],
          "internalType": "struct IOrderMixin.Order",
          "name": "order",
          "type": "tuple"
        },
        {
          "internalType": "bytes",
          "name": "extension",
          "type": "bytes"
        },
        {
          "internalType": "bytes32",
          "name": "orderHash",
          "type": "bytes32"
        },
        {
          "internalType": "address",
          "name": "taker",
          "type": "address"
        },
        {
          "internalType": "uint256",
          "name": "makingAmount",
          "type": "uint256"
        },
        {
          "internalType": "uint256",
          "name": "takingAmount",
          "type": "uint256"
        },
        {
          "internalType": "uint256",
          "name": "remainingMakingAmount",
          "type": "uint256"
        },
        {
          "internalType": "bytes",
          "name": "extraData",
          "type": "bytes"
        }
      ],
      "name": "preInteraction",
      "outputs": [],
      "stateMutability": "nonpayable",
      "type": "function"
    },
    {
      "inputs": [
        {
          "internalType": "bytes32",
          "name": "orderHash",
          "type": "bytes32"
        },
        {
          "internalType": "MakerTraits",
          "name": "makerTraits",
          "type": "uint256"
        }
      ],
      "name": "processCancellation",
      "outputs": [],
      "stateMutability": "nonpayable",
      "type": "function"
    },
    {
      "inputs": [
        {
          "internalType": "bytes32",
          "name": "ocoId",
          "type": "bytes32"
        }
      ],
      "name": "removeOCOConfig",
      "outputs": [],
      "stateMutability": "nonpayable",
      "type": "function"
    },
    {
      "inputs": [],
      "name": "renounceOwnership",
      "outputs": [],
      "stateMutability": "nonpayable",
      "type": "function"
    },
    {
      "inputs": [
        {
          "internalType": "uint256",
          "name": "delay",
          "type": "uint256"
        }
      ],
      "name": "setCancellationDelay",
      "outputs": [],
      "stateMutability": "nonpayable",
      "type": "function"
    },
    {
      "inputs": [
        {
          "internalType": "address",
          "name": "keeper",
          "type": "address"
        },
        {
          "internalType": "bool",
          "name": "authorized",
          "type": "bool"
        }
      ],
      "name": "setKeeperAuthorization",
      "outputs": [],
      "stateMutability": "nonpayable",
      "type": "function"
    },
    {
      "inputs": [
        {
          "internalType": "address",
          "name": "newOwner",
          "type": "address"
        }
      ],
      "name": "transferOwnership",
      "outputs": [],
      "stateMutability": "nonpayable",
      "type": "function"
    },
    {
      "inputs": [],
      "name": "unpause",
      "outputs": [],
      "stateMutability": "nonpayable",
      "type": "function"
    }
  ],
  "bytecode": "0x60a0346100e157601f6124c038819003918201601f19168301916001600160401b038311848410176100e5578084926020946040528339810103126100e157516001600160a01b039081811681036100e15733156100c9575f5460405192339082167f8be0079c531659141344cd1fd0a4f28419497f9722a3daafe3b4186f6b6457e05f80a36001600160a81b0319163360ff60a01b1916175f5560018055601e6006556080526123c690816100fa8239608051818181610cc2015281816116dd0152611c910152f35b604051631e4fbdf760e01b81525f6004820152602490fd5b5f80fd5b634e487b7160e01b5f52604160045260245ffdfe6080604052600480361015610012575f80fd5b5f3560e01c80630986bdd5146114af578063149451f7146112d55780631d9671c3146112b357806322ff552b1461122757806327fda23b1461108d5780633b412d9614610f8f5780633f4ba83a14610ed15780635c975abb14610e8f578063661b696614610e545780636995c74c14610dbe5780636d8548b414610d80578063715018a614610ce65780637f94dd3314610c785780638456cb5914610bd15780638da5cb5b14610b81578063b4e8309614610aca578063c56f264d14610a63578063d0a8cb1e14610616578063d7ff8a80146105ec578063dfa1f08d14610525578063eafcf19f14610443578063ee1c4157146103fc578063eee81ff914610335578063f2fde38b146102555763fdcc35bd1461012d575f80fd5b346102515760607ffffffffffffffffffffffffffffffffffffffffffffffffffffffffffffffffc3601126102515761016461158c565b6024359073ffffffffffffffffffffffffffffffffffffffff9283831693848403610251575f604460209281359561019a61219c565b1695604051907fa9059cbb0000000000000000000000000000000000000000000000000000000082528582015285602482015282875af180610232575b1561020a575060207f238062e33e7062c4aeccb2acac43aecc0b1a1ca891a5bc84a689f2272cb39a4391604051908152a3005b6040517ffb7f5079000000000000000000000000000000000000000000000000000000008152fd5b503d156102485760015f5114601f3d11166101d7565b823b15156101d7565b5f80fd5b50346102515760207ffffffffffffffffffffffffffffffffffffffffffffffffffffffffffffffffc3601126102515761028d61158c565b61029561219c565b73ffffffffffffffffffffffffffffffffffffffff80911691821561030557505f54827fffffffffffffffffffffffff00000000000000000000000000000000000000008216175f55167f8be0079c531659141344cd1fd0a4f28419497f9722a3daafe3b4186f6b6457e05f80a3005b6024905f604051917f1e4fbdf7000000000000000000000000000000000000000000000000000000008352820152fd5b50346102515760407ffffffffffffffffffffffffffffffffffffffffffffffffffffffffffffffffc3601126102515761036d61158c565b60243590811515809203610251577fd370523e7a29cc54b0e1e6b66ffeb47a2c0d6e37b090e2da19993c7282da39ac9173ffffffffffffffffffffffffffffffffffffffff6020926103bd61219c565b1693845f52825260405f207fffffffffffffffffffffffffffffffffffffffffffffffffffffffffffffff0081541660ff8316179055604051908152a2005b50346102515760207ffffffffffffffffffffffffffffffffffffffffffffffffffffffffffffffffc36011261025157355f526003602052602060405f2054604051908152f35b50346102515760207ffffffffffffffffffffffffffffffffffffffffffffffffffffffffffffffffc360112610251578061016091355f52600260205260405f209081549160018101549160028201549060ff73ffffffffffffffffffffffffffffffffffffffff9283600386015493860154169360066005870154960154966040519889526020890152811660408801526104e760608801838360a01c166115af565b818160a81c1615156080880152818160b01c16151560a088015260b81c16151560c086015260e0850152610100840152610120830152610140820152f35b50346102515760209060207ffffffffffffffffffffffffffffffffffffffffffffffffffffffffffffffffc360112610251573561057b61056582611eed565b916105736040519384611a5c565b808352611eed565b7fffffffffffffffffffffffffffffffffffffffffffffffffffffffffffffffe0602083019101368237604051928392604084019060408552518091526060840192915f5b8281106105d557505050505f60208301520390f35b8351855286955093810193928101926001016105c0565b3461025157602061060e6105ff366115e9565b97969096959195949294611df7565b604051908152f35b5034610251576101807ffffffffffffffffffffffffffffffffffffffffffffffffffffffffffffffffc3601126102515780356101607fffffffffffffffffffffffffffffffffffffffffffffffffffffffffffffffdc3601126102515761067c611f05565b610684612161565b805f526002602052600360405f200154610a3a576024359060443592838314610a12576106af611dd4565b9073ffffffffffffffffffffffffffffffffffffffff9182339116036109ea5761016435904282118015906109a9575b610981576084359160038310156102515760028311610958576101443564746a528800811161092f57610710611dd4565b92610124359086821680920361025157876040519561072e87611a2b565b8a8752602087018c815289604089019216825260608801906107508a83611a9d565b608089015f815260a08a01905f825260c08b01926001845260e08c01964288526101008d01998a526101208d019a8b526101408d019b8c525f52600260205260405f209b518c555160018c01558c60028c019551168554945191600383101561090357948e9c9995947f5593e1b7e15e35f6b4565eaa80ef0feedb0a824ae1b3683f6cba20a537f98f889f959460409f9c98939474ff00000000000000000000000000000000000000006108fc9f9b967fffffffffffffffff00000000000000000000000000000000000000000000000077ff000000000000000000000000000000000000000000000060069f9a75ff00000000000000000000000000000000000000000076ff000000000000000000000000000000000000000000009151151560a81b169651151560b01b169651151560b81b169616179160a01b1617171717905551600388015586019151167fffffffffffffffffffffffff000000000000000000000000000000000000000082541617905551600584015551910155865f52600360205285845f2055875f5285845f20556108ec611dd4565b84519316835260208301906115af565ba460018055005b6021897f4e487b71000000000000000000000000000000000000000000000000000000005f525260245ffd5b826040517fa9054847000000000000000000000000000000000000000000000000000000008152fd5b506040517f4e236e9a000000000000000000000000000000000000000000000000000000008152fd5b6040517fc633809a000000000000000000000000000000000000000000000000000000008152fd5b5062278d0042018042116109be5782116106df565b6011827f4e487b71000000000000000000000000000000000000000000000000000000005f525260245ffd5b6040517f5c427cd9000000000000000000000000000000000000000000000000000000008152fd5b6040517fdcb92f26000000000000000000000000000000000000000000000000000000008152fd5b506040517fc2e77330000000000000000000000000000000000000000000000000000000008152fd5b50346102515760207ffffffffffffffffffffffffffffffffffffffffffffffffffffffffffffffffc3601126102515773ffffffffffffffffffffffffffffffffffffffff610ab061158c565b165f52602052602060ff60405f2054166040519015158152f35b50346102515760407ffffffffffffffffffffffffffffffffffffffffffffffffffffffffffffffffc36011261025157335f528060205260ff60405f2054161580610b60575b610b3857610b3290610b20611f05565b610b28612161565b6024359035611bd9565b60018055005b6040517f77b14347000000000000000000000000000000000000000000000000000000008152fd5b5073ffffffffffffffffffffffffffffffffffffffff5f5416331415610b10565b34610251575f7ffffffffffffffffffffffffffffffffffffffffffffffffffffffffffffffffc36011261025157602073ffffffffffffffffffffffffffffffffffffffff5f5416604051908152f35b34610251575f7ffffffffffffffffffffffffffffffffffffffffffffffffffffffffffffffffc36011261025157610c0761219c565b610c0f611f05565b740100000000000000000000000000000000000000007fffffffffffffffffffffff00ffffffffffffffffffffffffffffffffffffffff5f5416175f557f62e78cea01bee320cd4e420270b5ea74000d11b0c9f74754ebdbfc544b05a2586020604051338152a1005b34610251575f7ffffffffffffffffffffffffffffffffffffffffffffffffffffffffffffffffc36011261025157602060405173ffffffffffffffffffffffffffffffffffffffff7f0000000000000000000000000000000000000000000000000000000000000000168152f35b34610251575f7ffffffffffffffffffffffffffffffffffffffffffffffffffffffffffffffffc36011261025157610d1c61219c565b5f73ffffffffffffffffffffffffffffffffffffffff81547fffffffffffffffffffffffff000000000000000000000000000000000000000081168355167f8be0079c531659141344cd1fd0a4f28419497f9722a3daafe3b4186f6b6457e08280a3005b50346102515760207ffffffffffffffffffffffffffffffffffffffffffffffffffffffffffffffffc36011261025157610db861219c565b35600655005b50346102515760207ffffffffffffffffffffffffffffffffffffffffffffffffffffffffffffffffc36011261025157355f908152600360205260408120546060918115159182610e1e575b604051928352602083015215156040820152f35b8091505f52600260205260405f2060ff600282015460b81c169081610e45575b5090610e0a565b6006915001544211155f610e3e565b34610251575f7ffffffffffffffffffffffffffffffffffffffffffffffffffffffffffffffffc360112610251576020600654604051908152f35b34610251575f7ffffffffffffffffffffffffffffffffffffffffffffffffffffffffffffffffc36011261025157602060ff5f5460a01c166040519015158152f35b5034610251575f7ffffffffffffffffffffffffffffffffffffffffffffffffffffffffffffffffc36011261025157610f0861219c565b5f5460ff8160a01c1615610f66577fffffffffffffffffffffff00ffffffffffffffffffffffffffffffffffffffff165f557f5db9ee0a495bf2e6ff9c91a7834c1ba4fdd244a5e8aa4e537bd38aeae4b073aa6020604051338152a1005b506040517f8dfc202b000000000000000000000000000000000000000000000000000000008152fd5b50346102515760207ffffffffffffffffffffffffffffffffffffffffffffffffffffffffffffffffc360112610251578035805f526002602052600260405f2073ffffffffffffffffffffffffffffffffffffffff918291015416331415908161107f575b50611056575f918160069284526002602052600160408520805486526003602052856040812055015484528360408120558352600260205282604081209181835581600184015581600284015581600384015582015582600582015501555f80f35b506040517f5c427cd9000000000000000000000000000000000000000000000000000000008152fd5b90505f54163314155f610ff4565b50346102515760407ffffffffffffffffffffffffffffffffffffffffffffffffffffffffffffffffc3601126102515767ffffffffffffffff908035828111610251576110dd9036908301611693565b919092602490602435908111610251576110fa9036908401611693565b939094335f528360205260ff60405f2054161580611206575b6111dd5761111f611f05565b611127612161565b8482036111b4575f5b82811061113d5760018055005b611148818484611b62565b359061115581888a611b62565b3591303b1561025157600192604051917fb4e8309600000000000000000000000000000000000000000000000000000000835288830152868201525f8160448183305af16111a5575b5001611130565b6111ae90611a48565b5f61119e565b836040517fbb2c1017000000000000000000000000000000000000000000000000000000008152fd5b836040517f77b14347000000000000000000000000000000000000000000000000000000008152fd5b5073ffffffffffffffffffffffffffffffffffffffff5f5416331415611113565b50346102515760207ffffffffffffffffffffffffffffffffffffffffffffffffffffffffffffffffc36011261025157355f52600560205260a060405f2060ff81549160018101549060036002820154910154916040519485526020850152604084015273ffffffffffffffffffffffffffffffffffffffff81166060840152831c1615156080820152f35b3461025157602061060e6112c6366115e9565b97969096959195949294611aa9565b50346102515760207ffffffffffffffffffffffffffffffffffffffffffffffffffffffffffffffffc36011261025157610160905f61014060405161131981611a2b565b8281528260208201528260408201528260608201528260808201528260a08201528260c08201528260e08201528261010082015282610120820152015280355f526002602052600660405f2073ffffffffffffffffffffffffffffffffffffffff6040519361138785611a2b565b825485526001830154602086015260ff600284015483811660408801526113b6828260a01c1660608901611a9d565b818160a81c1615156080880152818160b01c16151560a088015260b81c16151560c0860152600383015460e0860152820154166101008401526005810154610120840152015461014082015261014060405191805183526020810151602084015273ffffffffffffffffffffffffffffffffffffffff6040820151166040840152611449606082015160608501906115af565b60808101511515608084015260a0810151151560a084015260c0810151151560c084015260e081015160e084015273ffffffffffffffffffffffffffffffffffffffff610100820151166101008401526101208101516101208401520151610140820152f35b5034610251577ffffffffffffffffffffffffffffffffffffffffffffffffffffffffffffffffc36016101e0811261025157610100136102515767ffffffffffffffff610104358181116102515761150a903690840161155e565b5050610144359073ffffffffffffffffffffffffffffffffffffffff82168203610251576101c4359081116102515761155c926115499136910161155e565b5050611553611f05565b610124356116c4565b005b9181601f840112156102515782359167ffffffffffffffff8311610251576020838186019501011161025157565b6004359073ffffffffffffffffffffffffffffffffffffffff8216820361025157565b9060038210156115bc5752565b7f4e487b71000000000000000000000000000000000000000000000000000000005f52602160045260245ffd5b907ffffffffffffffffffffffffffffffffffffffffffffffffffffffffffffffffc82016101c0811261025157610100136102515760049167ffffffffffffffff906101043582811161025157816116439160040161155e565b9390939261012435926101443573ffffffffffffffffffffffffffffffffffffffff811681036102515792610164359261018435926101a4359182116102515761168f9160040161155e565b9091565b9181601f840112156102515782359167ffffffffffffffff8311610251576020808501948460051b01011161025157565b73ffffffffffffffffffffffffffffffffffffffff91827f0000000000000000000000000000000000000000000000000000000000000000163303611a0157815f52602092600384526040805f20549283156119f957835f5260028652815f20956002870196875460ff8160b81c16156119bb57600582015480151590816119ef575b506119c65781549088820361195f575050875460ff8160a81c16611936577fffffffffffffffffffff00ffffffffffffffffffffffffffffffffffffffffff16750100000000000000000000000000000000000000000017885560010154965b7fffffffffffffffff00ffffffffffffffffffffffffffffffffffffffffffffff8154169055865f52600581526002835f20015461190d5782519360a085019480861067ffffffffffffffff8711176118e0577f796a0f45e55a6909a39de4983e2a6fb650213ed2dce0daae24f245203546273b95855288815288826003858401938a8552888101428152606082019532875260808301955f87525f52600589528a5f2092518355516001830155516002820155019251167fffffffffffffffffffffff00000000000000000000000000000000000000000074ff000000000000000000000000000000000000000084549351151560a01b16921617179055835142815286897fd30cabffd4853d53a9ecf7e3cfd85cf952c2cf94baabba0d0eb629e0f2635f9e853294a48351921682524290820152a4565b7f4e487b71000000000000000000000000000000000000000000000000000000005f52604160045260245ffd5b600483517f7f9d7261000000000000000000000000000000000000000000000000000000008152fd5b600485517f8a2ef116000000000000000000000000000000000000000000000000000000008152fd5b90916001015488145f146119bb5760ff8160b01c16611936577fffffffffffffffffff00ffffffffffffffffffffffffffffffffffffffffffff16760100000000000000000000000000000000000000000000178855966117a7565b505050505050505050565b600485517fa9054847000000000000000000000000000000000000000000000000000000008152fd5b90503a115f611747565b505050505050565b60046040517f5c427cd9000000000000000000000000000000000000000000000000000000008152fd5b610160810190811067ffffffffffffffff8211176118e057604052565b67ffffffffffffffff81116118e057604052565b90601f7fffffffffffffffffffffffffffffffffffffffffffffffffffffffffffffffe0910116810190811067ffffffffffffffff8211176118e057604052565b60038210156115bc5752565b9796959493929190825f52600360205260405f20548015611b58575f52600260205260405f2060028101549060ff8260b81c16158015611b4b575b611b2f578054851480611b3e575b611b2f576001015484149081611b21575b50611b1457611b1198612068565b90565b5050505050505050505f90565b60ff915060a81c165f611b03565b50505050505050505050505f90565b5060ff8260b01c16611af2565b5060068101544211611ae4565b50611b1198612068565b9190811015611b725760051b0190565b7f4e487b71000000000000000000000000000000000000000000000000000000005f52603260045260245ffd5b91908201809211611bac57565b7f4e487b71000000000000000000000000000000000000000000000000000000005f52601160045260245ffd5b90815f526005602052604090815f209060028201548015611dab57600383019283549160ff8360a01c16611da257600654611c1391611b9f565b4210611d79576001019283545f52600260205273ffffffffffffffffffffffffffffffffffffffff91826004875f200154168015159081611d6e575b50611d45577fffffffffffffffffffffff00ffffffffffffffffffffffffffffffffffffffff16740100000000000000000000000000000000000000001790557f00000000000000000000000000000000000000000000000000000000000000001690813b15610251575f9160448392865194859384927fb68fb02000000000000000000000000000000000000000000000000000000000845260048401528960248401525af19081611d36575b50611d0757505050565b549051914283527ff211df8c48bd72ec287be95fcfec907ae75e2a90ba9838df08725313813ca0e260203394a4565b611d3f90611a48565b5f611cfd565b600486517f77b14347000000000000000000000000000000000000000000000000000000008152fd5b90503314155f611c4f565b600485517f6d305105000000000000000000000000000000000000000000000000000000008152fd5b50505050505050565b600484517f490e0ff5000000000000000000000000000000000000000000000000000000008152fd5b60643573ffffffffffffffffffffffffffffffffffffffff811681036102515790565b9796959493929190825f52600360205260405f20548015611ee3575f52600260205260405f2060028101549060ff8260b81c16158015611ed6575b611e9a578054851480611ec9575b611e9a576001015484149081611e8c575b50611e5f57611b11986121ec565b5050505050505050507fffffffffffffffffffffffffffffffffffffffffffffffffffffffffffffffff90565b60ff915060a81c165f611e51565b50505050505050505050507fffffffffffffffffffffffffffffffffffffffffffffffffffffffffffffffff90565b5060ff8260b01c16611e40565b5060068101544211611e32565b50611b11986121ec565b67ffffffffffffffff81116118e05760051b60200190565b60ff5f5460a01c16611f1357565b60046040517fd93c0665000000000000000000000000000000000000000000000000000000008152fd5b7fffffffffffffffffffffffffffffffffffffffff0000000000000000000000009035818116939260148110611f7257505050565b60140360031b82901b16169150565b601f82602094937fffffffffffffffffffffffffffffffffffffffffffffffffffffffffffffffe093818652868601375f8582860101520116010190565b949073ffffffffffffffffffffffffffffffffffffffff92611b119a98959997946120409260e06101c09180358b52602081013560208c0152604081013560408c0152606081013560608c0152608081013560808c015260a081013560a08c015260c081013560c08c0152013560e08a0152806101008a0152880191611f81565b97610120860152166101408401526101608301526101808201526101a0818503910152611f81565b9097949693959492939060148410612145576120848483611f3d565b60601c9584601411610251576020986014987fffffffffffffffffffffffffffffffffffffffffffffffffffffffffffffffec976120f6966040519d8e9c8d9b8c9b7f1d9671c3000000000000000000000000000000000000000000000000000000008d520198019660048b01611fbf565b03915afa90811561213a575f9161210b575090565b90506020813d602011612132575b8161212660209383611a5c565b81010312610251575190565b3d9150612119565b6040513d5f823e3d90fd5b9695505050505050611b11925060a060c08301359201356122d8565b600260015414612172576002600155565b60046040517f3ee5aeb5000000000000000000000000000000000000000000000000000000008152fd5b73ffffffffffffffffffffffffffffffffffffffff5f541633036121bc57565b60246040517f118cdaa7000000000000000000000000000000000000000000000000000000008152336004820152fd5b909794969395949293906014841061227a576122088483611f3d565b60601c9584601411610251576020986014987fffffffffffffffffffffffffffffffffffffffffffffffffffffffffffffffec976120f6966040519d8e9c8d9b8c9b7fd7ff8a80000000000000000000000000000000000000000000000000000000008d520198019660048b01611fbf565b975050505050505060a060c08301359201356122978183856122d8565b9181156122ab57611b119309151590611b9f565b7f4e487b71000000000000000000000000000000000000000000000000000000005f52601260045260245ffd5b91818302917fffffffffffffffffffffffffffffffffffffffffffffffffffffffffffffffff81850993838086109503948086039514612382578483111561236a5790829109815f038216809204600280826003021880830282030280830282030280830282030280830282030280830282030280920290030293600183805f03040190848311900302920304170290565b82634e487b715f52156003026011186020526024601cfd5b5050809250156122ab57049056fea2646970667358221220de04787dbc4c6e776debd4b713488528aecf30874e71bc9b1e80ee69c004a1ae64736f6c63430008170033",
  "linkReferences": {},
  "deployedLinkReferences": {}
}