{
  "_format": "hh-sol-artifact-1",
  "contractName": "Permit2WitnessProxy",
  "sourceName": "contracts/extensions/Permit2WitnessProxy.sol",
  "abi": [
    {
      "inputs": [
        {
          "internalType": "address",
          "name": "_immutableOwner",
          "type": "address"
        }
      ],
      "stateMutability": "nonpayable",
      "type": "constructor"
    },
    {
      "inputs": [],
      "name": "IOAccessDenied",
      "type": "error"
    },
    {
      "inputs": [],
      "name": "Permit2WitnessProxyBadSelector",
      "type": "error"
    },
    {
      "inputs": [],
      "name": "IMMUTABLE_OWNER",
      "outputs": [
        {
          "internalType": "address",
          "name": "",
          "type": "address"
        }
      ],
      "stateMutability": "view",
      "type": "function"
    },
    {
      "inputs": [
        {
          "internalType": "address",
          "name": "from",
          "type": "address"
        },
        {
          "internalType": "address",
          "name": "to",
          "type": "address"
        },
        {
          "internalType": "uint256",
          "name": "amount",
          "type": "uint256"
        },
        {
          "components": [
            {
              "components": [
                {
                  "internalType": "address",
                  "name": "token",
                  "type": "address"
                },
                {
                  "internalType": "uint256",
                  "name": "amount",
                  "type": "uint256"
                }
              ],
              "internalType": "struct IPermit2WitnessTransferFrom.TokenPermissions",
              "name": "permitted",
              "type": "tuple"
            },
            {
              "internalType": "uint256",
              "name": "nonce",
              "type": "uint256"
            },
            {
              "internalType": "uint256",
              "name": "deadline",
              "type": "uint256"
            }
          ],
          "internalType": "struct IPermit2WitnessTransferFrom.PermitTransferFrom",
          "name": "permit",
          "type": "tuple"
        },
        {
          "internalType": "bytes32",
          "name": "witness",
          "type": "bytes32"
        },
        {
          "internalType": "bytes",
          "name": "sig",
          "type": "bytes"
        }
      ],
      "name": "func_801zDya",
      "outputs": [],
      "stateMutability": "nonpayable",
      "type": "function"
    }
  ],
  "bytecode": "0x60a03461007057601f61050c38819003918201601f19168301916001600160401b038311848410176100745780849260209460405283398101031261007057516001600160a01b03811681036100705760805260405161048390816100898239608051818181608101526101760152f35b5f80fd5b634e487b7160e01b5f52604160045260245ffdfe6080604081815260049182361015610015575f80fd5b5f925f3560e01c91826323b872dd146100a957505063f3d1372f14610038575f80fd5b346100a557817ffffffffffffffffffffffffffffffffffffffffffffffffffffffffffffffffc3601126100a5576020905173ffffffffffffffffffffffffffffffffffffffff7f0000000000000000000000000000000000000000000000000000000000000000168152f35b5080fd5b90929150346103cc576101207ffffffffffffffffffffffffffffffffffffffffffffffffffffffffffffffffc3601126103cc5782359273ffffffffffffffffffffffffffffffffffffffff8085168095036103cc576024928335908282168092036103cc5760807fffffffffffffffffffffffffffffffffffffffffffffffffffffffffffffff9c3601126103cc576101049687359167ffffffffffffffff948584116103cc57366023850112156103cc5783870135918683116103cc57368984870101116103cc57817f00000000000000000000000000000000000000000000000000000000000000001633036104265750885194898601868110888211176103fb578a528552602090602086019a6044358c528a5194608086018681108a8211176103d0578c52605386527f5769746e657373207769746e65737329546f6b656e5065726d697373696f6e7360208701527f286164647265737320746f6b656e2c75696e7432353620616d6f756e742957698c8701527f746e65737328627974657333322073616c74290000000000000000000000000060608701526e22d473030f116ddee9f6b43ac78ba397883b156103cc577f137c29fe000000000000000000000000000000000000000000000000000000009d8d519e8f52606435908582168092036103cc578f999897969492958e9661014095938f8d0152608435888d015260a43560448d015260c43560648d0152511660848b01525160a48a015260c489015260e43560e4890152870152835193846101448801525f5b8581106103af5750505092848093601f8085805f9b998c98610164968a88828b0101527fffffffffffffffffffffffffffffffffffffffffffffffffffffffffffffffe09687910116880196610160898903016101248a0152870152610184970187860137868682860101520116010301925af180156103a55761036a578580f35b909192938095501161037b57505052005b6041907f4e487b71000000000000000000000000000000000000000000000000000000005f52525ffd5b84513d5f823e3d90fd5b81810183015197810161016401979097528c968b935082016102e8565b5f80fd5b8b60418c7f4e487b71000000000000000000000000000000000000000000000000000000005f52525ffd5b8960418a7f4e487b71000000000000000000000000000000000000000000000000000000005f52525ffd5b807f497131ed00000000000000000000000000000000000000000000000000000000899252fdfea2646970667358221220caaa96ae331df3fa07b23515bf36c60128976b2c0823a97f5ea5fb90e183dab764736f6c63430008170033",
  "linkReferences": {},
  "deployedLinkReferences": {}
}