{
  "_format": "hh-sol-artifact-1",
  "contractName": "StopLossMarketOrderV2",
  "sourceName": "contracts/extensions/StopLossMarketOrderV2.sol",
  "abi": [
    {
      "inputs": [
        {
          "internalType": "address",
          "name": "_limitOrderProtocol",
          "type": "address"
        }
      ],
      "stateMutability": "nonpayable",
      "type": "constructor"
    },
    {
      "inputs": [],
      "name": "EnforcedPause",
      "type": "error"
    },
    {
      "inputs": [],
      "name": "ExpectedPause",
      "type": "error"
    },
    {
      "inputs": [],
      "name": "ForceApproveFailed",
      "type": "error"
    },
    {
      "inputs": [],
      "name": "InsufficientSlippage",
      "type": "error"
    },
    {
      "inputs": [],
      "name": "InvalidAggregationRouter",
      "type": "error"
    },
    {
      "inputs": [],
      "name": "InvalidOracle",
      "type": "error"
    },
    {
      "inputs": [],
      "name": "InvalidOraclePrice",
      "type": "error"
    },
    {
      "inputs": [],
      "name": "InvalidPriceHistory",
      "type": "error"
    },
    {
      "inputs": [],
      "name": "InvalidSlippageTolerance",
      "type": "error"
    },
    {
      "inputs": [],
      "name": "InvalidStopPrice",
      "type": "error"
    },
    {
      "inputs": [],
      "name": "InvalidTokenDecimals",
      "type": "error"
    },
    {
      "inputs": [],
      "name": "OnlyLimitOrderProtocol",
      "type": "error"
    },
    {
      "inputs": [],
      "name": "OracleDecimalsMismatch",
      "type": "error"
    },
    {
      "inputs": [
        {
          "internalType": "address",
          "name": "owner",
          "type": "address"
        }
      ],
      "name": "OwnableInvalidOwner",
      "type": "error"
    },
    {
      "inputs": [
        {
          "internalType": "address",
          "name": "account",
          "type": "address"
        }
      ],
      "name": "OwnableUnauthorizedAccount",
      "type": "error"
    },
    {
      "inputs": [],
      "name": "PriceDeviationTooHigh",
      "type": "error"
    },
    {
      "inputs": [],
      "name": "ReentrancyGuardReentrantCall",
      "type": "error"
    },
    {
      "inputs": [],
      "name": "SafeDecreaseAllowanceFailed",
      "type": "error"
    },
    {
      "inputs": [],
      "name": "SafeIncreaseAllowanceFailed",
      "type": "error"
    },
    {
      "inputs": [],
      "name": "SafeTransferFailed",
      "type": "error"
    },
    {
      "inputs": [],
      "name": "SafeTransferFromFailed",
      "type": "error"
    },
    {
      "inputs": [],
      "name": "StaleOraclePrice",
      "type": "error"
    },
    {
      "inputs": [],
      "name": "StopLossNotTriggered",
      "type": "error"
    },
    {
      "inputs": [],
      "name": "SwapExecutionFailed",
      "type": "error"
    },
    {
      "inputs": [],
      "name": "UnauthorizedCaller",
      "type": "error"
    },
    {
      "inputs": [],
      "name": "UnauthorizedKeeper",
      "type": "error"
    },
    {
      "anonymous": false,
      "inputs": [
        {
          "indexed": true,
          "internalType": "address",
          "name": "router",
          "type": "address"
        },
        {
          "indexed": false,
          "internalType": "bool",
          "name": "approved",
          "type": "bool"
        }
      ],
      "name": "AggregationRouterApproved",
      "type": "event"
    },
    {
      "anonymous": false,
      "inputs": [
        {
          "indexed": true,
          "internalType": "address",
          "name": "oracle",
          "type": "address"
        },
        {
          "indexed": false,
          "internalType": "uint256",
          "name": "heartbeat",
          "type": "uint256"
        }
      ],
      "name": "OracleHeartbeatUpdated",
      "type": "event"
    },
    {
      "anonymous": false,
      "inputs": [
        {
          "indexed": true,
          "internalType": "address",
          "name": "previousOwner",
          "type": "address"
        },
        {
          "indexed": true,
          "internalType": "address",
          "name": "newOwner",
          "type": "address"
        }
      ],
      "name": "OwnershipTransferred",
      "type": "event"
    },
    {
      "anonymous": false,
      "inputs": [
        {
          "indexed": false,
          "internalType": "address",
          "name": "account",
          "type": "address"
        }
      ],
      "name": "Paused",
      "type": "event"
    },
    {
      "anonymous": false,
      "inputs": [
        {
          "indexed": true,
          "internalType": "bytes32",
          "name": "orderHash",
          "type": "bytes32"
        },
        {
          "indexed": true,
          "internalType": "address",
          "name": "orderMaker",
          "type": "address"
        },
        {
          "indexed": false,
          "internalType": "address",
          "name": "makerAssetOracle",
          "type": "address"
        },
        {
          "indexed": false,
          "internalType": "address",
          "name": "takerAssetOracle",
          "type": "address"
        },
        {
          "indexed": false,
          "internalType": "uint256",
          "name": "stopPrice",
          "type": "uint256"
        },
        {
          "indexed": false,
          "internalType": "bool",
          "name": "isStopLoss",
          "type": "bool"
        }
      ],
      "name": "StopLossConfigured",
      "type": "event"
    },
    {
      "anonymous": false,
      "inputs": [
        {
          "indexed": true,
          "internalType": "bytes32",
          "name": "orderHash",
          "type": "bytes32"
        },
        {
          "indexed": true,
          "internalType": "address",
          "name": "keeper",
          "type": "address"
        },
        {
          "indexed": false,
          "internalType": "uint256",
          "name": "executionPrice",
          "type": "uint256"
        },
        {
          "indexed": false,
          "internalType": "uint256",
          "name": "returnAmount",
          "type": "uint256"
        }
      ],
      "name": "StopLossTriggered",
      "type": "event"
    },
    {
      "anonymous": false,
      "inputs": [
        {
          "indexed": false,
          "internalType": "address",
          "name": "account",
          "type": "address"
        }
      ],
      "name": "Unpaused",
      "type": "event"
    },
    {
      "inputs": [
        {
          "internalType": "contract AggregatorV3Interface",
          "name": "makerAssetOracle",
          "type": "address"
        },
        {
          "internalType": "contract AggregatorV3Interface",
          "name": "takerAssetOracle",
          "type": "address"
        }
      ],
      "name": "_getCurrentPriceSecureExternal",
      "outputs": [
        {
          "internalType": "uint256",
          "name": "",
          "type": "uint256"
        }
      ],
      "stateMutability": "view",
      "type": "function"
    },
    {
      "inputs": [
        {
          "internalType": "address",
          "name": "",
          "type": "address"
        }
      ],
      "name": "approvedRouters",
      "outputs": [
        {
          "internalType": "bool",
          "name": "",
          "type": "bool"
        }
      ],
      "stateMutability": "view",
      "type": "function"
    },
    {
      "inputs": [
        {
          "internalType": "bytes32",
          "name": "orderHash",
          "type": "bytes32"
        },
        {
          "internalType": "address",
          "name": "orderMaker",
          "type": "address"
        },
        {
          "components": [
            {
              "internalType": "contract AggregatorV3Interface",
              "name": "makerAssetOracle",
              "type": "address"
            },
            {
              "internalType": "contract AggregatorV3Interface",
              "name": "takerAssetOracle",
              "type": "address"
            },
            {
              "internalType": "uint256",
              "name": "stopPrice",
              "type": "uint256"
            },
            {
              "internalType": "uint256",
              "name": "maxSlippage",
              "type": "uint256"
            },
            {
              "internalType": "uint256",
              "name": "maxPriceDeviation",
              "type": "uint256"
            },
            {
              "internalType": "bool",
              "name": "isStopLoss",
              "type": "bool"
            },
            {
              "internalType": "address",
              "name": "keeper",
              "type": "address"
            },
            {
              "internalType": "address",
              "name": "orderMaker",
              "type": "address"
            },
            {
              "internalType": "uint256",
              "name": "configuredAt",
              "type": "uint256"
            },
            {
              "internalType": "uint8",
              "name": "makerTokenDecimals",
              "type": "uint8"
            },
            {
              "internalType": "uint8",
              "name": "takerTokenDecimals",
              "type": "uint8"
            }
          ],
          "internalType": "struct StopLossMarketOrderV2.StopLossConfig",
          "name": "config",
          "type": "tuple"
        }
      ],
      "name": "configureStopLoss",
      "outputs": [],
      "stateMutability": "nonpayable",
      "type": "function"
    },
    {
      "inputs": [
        {
          "internalType": "address",
          "name": "token",
          "type": "address"
        },
        {
          "internalType": "address",
          "name": "to",
          "type": "address"
        },
        {
          "internalType": "uint256",
          "name": "amount",
          "type": "uint256"
        }
      ],
      "name": "emergencyRecoverToken",
      "outputs": [],
      "stateMutability": "nonpayable",
      "type": "function"
    },
    {
      "inputs": [
        {
          "components": [
            {
              "internalType": "uint256",
              "name": "salt",
              "type": "uint256"
            },
            {
              "internalType": "Address",
              "name": "maker",
              "type": "uint256"
            },
            {
              "internalType": "Address",
              "name": "receiver",
              "type": "uint256"
            },
            {
              "internalType": "Address",
              "name": "makerAsset",
              "type": "uint256"
            },
            {
              "internalType": "Address",
              "name": "takerAsset",
              "type": "uint256"
            },
            {
              "internalType": "uint256",
              "name": "makingAmount",
              "type": "uint256"
            },
            {
              "internalType": "uint256",
              "name": "takingAmount",
              "type": "uint256"
            },
            {
              "internalType": "MakerTraits",
              "name": "makerTraits",
              "type": "uint256"
            }
          ],
          "internalType": "struct IOrderMixin.Order",
          "name": "order",
          "type": "tuple"
        },
        {
          "internalType": "bytes",
          "name": "extension",
          "type": "bytes"
        },
        {
          "internalType": "bytes32",
          "name": "orderHash",
          "type": "bytes32"
        },
        {
          "internalType": "address",
          "name": "taker",
          "type": "address"
        },
        {
          "internalType": "uint256",
          "name": "takingAmount",
          "type": "uint256"
        },
        {
          "internalType": "uint256",
          "name": "remainingMakingAmount",
          "type": "uint256"
        },
        {
          "internalType": "bytes",
          "name": "extraData",
          "type": "bytes"
        }
      ],
      "name": "getMakingAmount",
      "outputs": [
        {
          "internalType": "uint256",
          "name": "",
          "type": "uint256"
        }
      ],
      "stateMutability": "view",
      "type": "function"
    },
    {
      "inputs": [
        {
          "components": [
            {
              "internalType": "uint256",
              "name": "salt",
              "type": "uint256"
            },
            {
              "internalType": "Address",
              "name": "maker",
              "type": "uint256"
            },
            {
              "internalType": "Address",
              "name": "receiver",
              "type": "uint256"
            },
            {
              "internalType": "Address",
              "name": "makerAsset",
              "type": "uint256"
            },
            {
              "internalType": "Address",
              "name": "takerAsset",
              "type": "uint256"
            },
            {
              "internalType": "uint256",
              "name": "makingAmount",
              "type": "uint256"
            },
            {
              "internalType": "uint256",
              "name": "takingAmount",
              "type": "uint256"
            },
            {
              "internalType": "MakerTraits",
              "name": "makerTraits",
              "type": "uint256"
            }
          ],
          "internalType": "struct IOrderMixin.Order",
          "name": "order",
          "type": "tuple"
        },
        {
          "internalType": "bytes",
          "name": "extension",
          "type": "bytes"
        },
        {
          "internalType": "bytes32",
          "name": "orderHash",
          "type": "bytes32"
        },
        {
          "internalType": "address",
          "name": "taker",
          "type": "address"
        },
        {
          "internalType": "uint256",
          "name": "makingAmount",
          "type": "uint256"
        },
        {
          "internalType": "uint256",
          "name": "remainingMakingAmount",
          "type": "uint256"
        },
        {
          "internalType": "bytes",
          "name": "extraData",
          "type": "bytes"
        }
      ],
      "name": "getTakingAmount",
      "outputs": [
        {
          "internalType": "uint256",
          "name": "",
          "type": "uint256"
        }
      ],
      "stateMutability": "view",
      "type": "function"
    },
    {
      "inputs": [
        {
          "internalType": "bytes32",
          "name": "orderHash",
          "type": "bytes32"
        }
      ],
      "name": "isStopLossTriggered",
      "outputs": [
        {
          "internalType": "bool",
          "name": "triggered",
          "type": "bool"
        },
        {
          "internalType": "uint256",
          "name": "currentPrice",
          "type": "uint256"
        }
      ],
      "stateMutability": "view",
      "type": "function"
    },
    {
      "inputs": [],
      "name": "limitOrderProtocol",
      "outputs": [
        {
          "internalType": "address",
          "name": "",
          "type": "address"
        }
      ],
      "stateMutability": "view",
      "type": "function"
    },
    {
      "inputs": [
        {
          "internalType": "address",
          "name": "",
          "type": "address"
        }
      ],
      "name": "oracleHeartbeats",
      "outputs": [
        {
          "internalType": "uint256",
          "name": "",
          "type": "uint256"
        }
      ],
      "stateMutability": "view",
      "type": "function"
    },
    {
      "inputs": [],
      "name": "owner",
      "outputs": [
        {
          "internalType": "address",
          "name": "",
          "type": "address"
        }
      ],
      "stateMutability": "view",
      "type": "function"
    },
    {
      "inputs": [],
      "name": "pause",
      "outputs": [],
      "stateMutability": "nonpayable",
      "type": "function"
    },
    {
      "inputs": [],
      "name": "paused",
      "outputs": [
        {
          "internalType": "bool",
          "name": "",
          "type": "bool"
        }
      ],
      "stateMutability": "view",
      "type": "function"
    },
    {
      "inputs": [
        {
          "components": [
            {
              "internalType": "uint256",
              "name": "salt",
              "type": "uint256"
            },
            {
              "internalType": "Address",
              "name": "maker",
              "type": "uint256"
            },
            {
              "internalType": "Address",
              "name": "receiver",
              "type": "uint256"
            },
            {
              "internalType": "Address",
              "name": "makerAsset",
              "type": "uint256"
            },
            {
              "internalType": "Address",
              "name": "takerAsset",
              "type": "uint256"
            },
            {
              "internalType": "uint256",
              "name": "makingAmount",
              "type": "uint256"
            },
            {
              "internalType": "uint256",
              "name": "takingAmount",
              "type": "uint256"
            },
            {
              "internalType": "MakerTraits",
              "name": "makerTraits",
              "type": "uint256"
            }
          ],
          "internalType": "struct IOrderMixin.Order",
          "name": "",
          "type": "tuple"
        },
        {
          "internalType": "bytes",
          "name": "",
          "type": "bytes"
        },
        {
          "internalType": "bytes32",
          "name": "orderHash",
          "type": "bytes32"
        },
        {
          "internalType": "address",
          "name": "taker",
          "type": "address"
        },
        {
          "internalType": "uint256",
          "name": "",
          "type": "uint256"
        },
        {
          "internalType": "uint256",
          "name": "",
          "type": "uint256"
        },
        {
          "internalType": "uint256",
          "name": "",
          "type": "uint256"
        },
        {
          "internalType": "bytes",
          "name": "",
          "type": "bytes"
        }
      ],
      "name": "preInteraction",
      "outputs": [],
      "stateMutability": "view",
      "type": "function"
    },
    {
      "inputs": [
        {
          "internalType": "bytes32",
          "name": "",
          "type": "bytes32"
        },
        {
          "internalType": "uint256",
          "name": "",
          "type": "uint256"
        }
      ],
      "name": "priceHistories",
      "outputs": [
        {
          "internalType": "uint256",
          "name": "price",
          "type": "uint256"
        },
        {
          "internalType": "uint256",
          "name": "timestamp",
          "type": "uint256"
        }
      ],
      "stateMutability": "view",
      "type": "function"
    },
    {
      "inputs": [
        {
          "internalType": "bytes32",
          "name": "orderHash",
          "type": "bytes32"
        }
      ],
      "name": "removeStopLossConfig",
      "outputs": [],
      "stateMutability": "nonpayable",
      "type": "function"
    },
    {
      "inputs": [],
      "name": "renounceOwnership",
      "outputs": [],
      "stateMutability": "nonpayable",
      "type": "function"
    },
    {
      "inputs": [
        {
          "internalType": "address",
          "name": "router",
          "type": "address"
        },
        {
          "internalType": "bool",
          "name": "approved",
          "type": "bool"
        }
      ],
      "name": "setAggregationRouterApproval",
      "outputs": [],
      "stateMutability": "nonpayable",
      "type": "function"
    },
    {
      "inputs": [
        {
          "internalType": "address",
          "name": "oracle",
          "type": "address"
        },
        {
          "internalType": "uint256",
          "name": "heartbeat",
          "type": "uint256"
        }
      ],
      "name": "setOracleHeartbeat",
      "outputs": [],
      "stateMutability": "nonpayable",
      "type": "function"
    },
    {
      "inputs": [
        {
          "internalType": "bytes32",
          "name": "",
          "type": "bytes32"
        }
      ],
      "name": "stopLossConfigs",
      "outputs": [
        {
          "internalType": "contract AggregatorV3Interface",
          "name": "makerAssetOracle",
          "type": "address"
        },
        {
          "internalType": "contract AggregatorV3Interface",
          "name": "takerAssetOracle",
          "type": "address"
        },
        {
          "internalType": "uint256",
          "name": "stopPrice",
          "type": "uint256"
        },
        {
          "internalType": "uint256",
          "name": "maxSlippage",
          "type": "uint256"
        },
        {
          "internalType": "uint256",
          "name": "maxPriceDeviation",
          "type": "uint256"
        },
        {
          "internalType": "bool",
          "name": "isStopLoss",
          "type": "bool"
        },
        {
          "internalType": "address",
          "name": "keeper",
          "type": "address"
        },
        {
          "internalType": "address",
          "name": "orderMaker",
          "type": "address"
        },
        {
          "internalType": "uint256",
          "name": "configuredAt",
          "type": "uint256"
        },
        {
          "internalType": "uint8",
          "name": "makerTokenDecimals",
          "type": "uint8"
        },
        {
          "internalType": "uint8",
          "name": "takerTokenDecimals",
          "type": "uint8"
        }
      ],
      "stateMutability": "view",
      "type": "function"
    },
    {
      "inputs": [
        {
          "components": [
            {
              "internalType": "uint256",
              "name": "salt",
              "type": "uint256"
            },
            {
              "internalType": "Address",
              "name": "maker",
              "type": "uint256"
            },
            {
              "internalType": "Address",
              "name": "receiver",
              "type": "uint256"
            },
            {
              "internalType": "Address",
              "name": "makerAsset",
              "type": "uint256"
            },
            {
              "internalType": "Address",
              "name": "takerAsset",
              "type": "uint256"
            },
            {
              "internalType": "uint256",
              "name": "makingAmount",
              "type": "uint256"
            },
            {
              "internalType": "uint256",
              "name": "takingAmount",
              "type": "uint256"
            },
            {
              "internalType": "MakerTraits",
              "name": "makerTraits",
              "type": "uint256"
            }
          ],
          "internalType": "struct IOrderMixin.Order",
          "name": "order",
          "type": "tuple"
        },
        {
          "internalType": "bytes",
          "name": "",
          "type": "bytes"
        },
        {
          "internalType": "bytes32",
          "name": "orderHash",
          "type": "bytes32"
        },
        {
          "internalType": "address",
          "name": "taker",
          "type": "address"
        },
        {
          "internalType": "uint256",
          "name": "makingAmount",
          "type": "uint256"
        },
        {
          "internalType": "uint256",
          "name": "takingAmount",
          "type": "uint256"
        },
        {
          "internalType": "uint256",
          "name": "",
          "type": "uint256"
        },
        {
          "internalType": "bytes",
          "name": "extraData",
          "type": "bytes"
        }
      ],
      "name": "takerInteraction",
      "outputs": [],
      "stateMutability": "nonpayable",
      "type": "function"
    },
    {
      "inputs": [
        {
          "internalType": "address",
          "name": "newOwner",
          "type": "address"
        }
      ],
      "name": "transferOwnership",
      "outputs": [],
      "stateMutability": "nonpayable",
      "type": "function"
    },
    {
      "inputs": [],
      "name": "unpause",
      "outputs": [],
      "stateMutability": "nonpayable",
      "type": "function"
    }
  ],
  "bytecode": "0x60a034620000f557601f6200335938819003918201601f19168301916001600160401b03831184841017620000f957808492602094604052833981010312620000f557516001600160a01b03808216808303620000f5573315620000dd575f5460405192339082167f8be0079c531659141344cd1fd0a4f28419497f9722a3daafe3b4186f6b6457e05f80a36001600160a81b0319163360ff60a01b1916175f556001805515620000ce575060805260405161324b90816200010e8239608051818181610cc601526116840152f35b63b8b2fe6360e01b8152600490fd5b604051631e4fbdf760e01b81525f6004820152602490fd5b5f80fd5b634e487b7160e01b5f52604160045260245ffdfe60406080815260049081361015610014575f80fd5b5f3560e01c9182630986bdd514611a065782631228bcef146119765782631d9671c3146119525782633f4ba83a146118955782634180790114611831578263445b1e4b146117ca5782635c975abb14611787578263715018a6146116ed5782637a035a59146116a85782637f94dd331461163a5782638456cb591461159357826387cfa5de146113a85782638da5cb5b14611357578263adf38ba114610c7c578263b138e52e14610ba4578263c93719b514610430578263d2671dc4146103d0578263d7ff8a80146103a5578263e17acbb71461035e578263e3f0b3b014610260578263f2fde38b1461018057505063fdcc35bd14610111575f80fd5b3461017c5760607ffffffffffffffffffffffffffffffffffffffffffffffffffffffffffffffffc36011261017c5761017a61014b611bdc565b610153611bff565b61015b6124a9565b73ffffffffffffffffffffffffffffffffffffffff6044359216612842565b005b5f80fd5b3461017c5760207ffffffffffffffffffffffffffffffffffffffffffffffffffffffffffffffffc36011261017c576101b7611bdc565b906101c06124a9565b73ffffffffffffffffffffffffffffffffffffffff8092169283156102315750505f54827fffffffffffffffffffffffff00000000000000000000000000000000000000008216175f55167f8be0079c531659141344cd1fd0a4f28419497f9722a3daafe3b4186f6b6457e05f80a3005b905f60249251917f1e4fbdf7000000000000000000000000000000000000000000000000000000008352820152fd5b903461017c57807ffffffffffffffffffffffffffffffffffffffffffffffffffffffffffffffffc36011261017c57610297611bdc565b906024358015159283820361017c5773ffffffffffffffffffffffffffffffffffffffff906102c46124a9565b169384156103375750916020916103307f03a624e972408ba033d63a16381d8da4d6c435222aa07a2d3750682d334eacc394865f5260038552825f209060ff7fffffffffffffffffffffffffffffffffffffffffffffffffffffffffffffff0083541691151516179055565b51908152a2005b82517fb8b2fe63000000000000000000000000000000000000000000000000000000008152fd5b3461017c5760207ffffffffffffffffffffffffffffffffffffffffffffffffffffffffffffffffc36011261017c576103979035611f62565b825191151582526020820152f35b503461017c576020906103c96103ba36611ccf565b979690969591959492946128da565b9051908152f35b903461017c5760207ffffffffffffffffffffffffffffffffffffffffffffffffffffffffffffffffc36011261017c5760209173ffffffffffffffffffffffffffffffffffffffff610420611bdc565b165f528252805f20549051908152f35b3461017c576101a07ffffffffffffffffffffffffffffffffffffffffffffffffffffffffffffffffc36011261017c5780359061046b611bff565b906101607fffffffffffffffffffffffffffffffffffffffffffffffffffffffffffffffbc36011261017c5773ffffffffffffffffffffffffffffffffffffffff80921693843303610b7e57826104c0611ed2565b16158015610b6d575b610b4757608435908115610b1f5760a435926113888411610af85760c435936103e88511610ad057856104fa611ed2565b1694835180967f313ce5670000000000000000000000000000000000000000000000000000000090818352828660209a8b935afa918215610aa7575f92610ab1575b508789610547611ef5565b16918688518094819382525afa908115610aa75760ff9182915f91610a7a575b5016911603610a5257601260ff61057c611f31565b16118015610a3e575b610a1657875f5260028652835f20908761059d611ed2565b16907fffffffffffffffffffffffff000000000000000000000000000000000000000091828454161783556105d0611ef5565b936001948a8686019116848254161790558760028501556003840155848301556105f8611f53565b6106316005840191829060ff7fffffffffffffffffffffffffffffffffffffffffffffffffffffffffffffff0083541691151516179055565b61010435898116810361017c577fffffffffffffffffffffff0000000000000000000000000000000000000000ff74ffffffffffffffffffffffffffffffffffffffff0083549260081b169116179055896006830191825416179055426007820155600861069d611f31565b91019081547fffffffffffffffffffffffffffffffffffffffffffffffffffffffffffff000060ff61ff006106d0611f42565b60081b1693169116171790556106f56106e7611ed2565b6106ef611ef5565b9061215f565b875f5260058652835f20907ffffffffffffffffffffffffffffffffffffffffffffffffffffffffffffffed442014281116109ea57835b61083a575b5084519085820182811067ffffffffffffffff82111761080e5786528152868101914283528054906801000000000000000082101561080e5790610779918582018155611db4565b9490946107e35750518355519101557f0ca0c8dd3a7a8bad17a1afa6a4cfc474e978ec962171ba0058e15cc802614efb9360809390929091836107ba611ed2565b16936107c4611ef5565b166107cd611f53565b93825195865285015283015215156060820152a3005b5f907f4e487b710000000000000000000000000000000000000000000000000000000082525260245ffd5b6041867f4e487b71000000000000000000000000000000000000000000000000000000005f525260245ffd5b82541515806109d5575b156109d0575f845b6108f1575b50825480156108c5577fffffffffffffffffffffffffffffffffffffffffffffffffffffffffffffffff016108868185611db4565b61089a575f8082559086015583558361072c565b5f877f4e487b710000000000000000000000000000000000000000000000000000000082525260245ffd5b6031867f4e487b71000000000000000000000000000000000000000000000000000000005f525260245ffd5b83547fffffffffffffffffffffffffffffffffffffffffffffffffffffffffffffffff810190811161099f578110156109cb5784810180821161099f576109389085611db4565b506109438286611db4565b91909161097457918187848195829503610962575b505050019061084c565b805483558101549101558e8281610958565b5f887f4e487b710000000000000000000000000000000000000000000000000000000082525260245ffd5b6011877f4e487b71000000000000000000000000000000000000000000000000000000005f525260245ffd5b610851565b610731565b5080846109e185611d75565b50015410610844565b6011857f4e487b71000000000000000000000000000000000000000000000000000000005f525260245ffd5b8284517f686d3607000000000000000000000000000000000000000000000000000000008152fd5b50601260ff610a4b611f42565b1611610585565b8284517fafbee9db000000000000000000000000000000000000000000000000000000008152fd5b610a9a91508a3d8c11610aa0575b610a928183611e17565b810190611f18565b8d610567565b503d610a88565b86513d5f823e3d90fd5b610ac9919250883d8a11610aa057610a928183611e17565b908b61053c565b5090517fd3c4a2f2000000000000000000000000000000000000000000000000000000008152fd5b90517fc31c0b6e000000000000000000000000000000000000000000000000000000008152fd5b9050517f7b097d8f000000000000000000000000000000000000000000000000000000008152fd5b517f9589a27d000000000000000000000000000000000000000000000000000000008152fd5b5082610b77611ef5565b16156104c9565b517f5c427cd9000000000000000000000000000000000000000000000000000000008152fd5b903461017c5760207ffffffffffffffffffffffffffffffffffffffffffffffffffffffffffffffffc36011261017c5760ff8261016093355f526002602052825f2073ffffffffffffffffffffffffffffffffffffffff9384825416948060018401541693600284015490600385015490850154906005860154928460068801541695600860078901549801549881519b8c5260208c01528a015260608901526080880152858116151560a088015260081c1660c086015260e085015261010084015281811661012084015260081c16610140820152f35b3461017c57610c8a36611c22565b949597509297999550505060019660028854146113305760028855610cad6120ce565b73ffffffffffffffffffffffffffffffffffffffff96877f000000000000000000000000000000000000000000000000000000000000000016330361130857908794939291875f52896020946002865260ff60088a5f208b519d8e95610d1287611dcd565b818354168752820154168986015260028101548c8601526060600382015495019485528d6080888301549101528d60c08c6005840154868116151560a0850152851c169101528d60e08c6006840154169101528d610100600783015491015201548c61012083831691015260081c166101408c0152840190888583031261017c5784359488861680960361017c57868101359067ffffffffffffffff821161017c57019082601f8301121561017c578135610dcc81611e98565b92610dd98c519485611e17565b8184528884019489838301011161017c57815f928a809301873784010152855f526003875260ff8a5f205416156112e057610e1e610e168c61261b565b9c8d86612fc9565b9051906127109182039182116112b45791878f989795936064610e458e9997955f93612a1c565b9a8d84816060840135169b51927f23b872dd00000000000000000000000000000000000000000000000000000000845201351688820152306024820152866044820152828a5af180611296575b1561126e578a517fdd62ed3e000000000000000000000000000000000000000000000000000000008082523086830190815273ffffffffffffffffffffffffffffffffffffffff881660208201529094919089908290819060400103818b5afa908115611264575f91611237575b508019821161120f5791610f21610f1a5f95938695612152565b888a61302c565b519082875af13d15611207573d90610f3882611e98565b91610f458c519384611e17565b82523d5f8884013e5b156111df5788868f81845110155f14611161575090508180518101031261017c57850151955b86106111395788518181523083820190815273ffffffffffffffffffffffffffffffffffffffff851660208201529092908690849081906040010381885afa928315611100575f9361110a575b5082611011575b505050505061100282848660807f6e6ff09bcc89f66740cc36a6ad575c037356270f44c165b466ecc94e0287f68b9a9b9c9d013516612842565b84519788528701521693a38055005b89519182523081830190815273ffffffffffffffffffffffffffffffffffffffff851660208201528690839081906040010381885afa918215611100575f926110d1575b508183116110aa575060807f6e6ff09bcc89f66740cc36a6ad575c037356270f44c165b466ecc94e0287f68b9a9b9c9d6110a061100296899661109a8c978e97612366565b9161302c565b9d9c9b9a50610fc8565b89517f840bdf26000000000000000000000000000000000000000000000000000000008152fd5b9091508581813d83116110f9575b6110e98183611e17565b8101031261017c5751908e611055565b503d6110df565b8a513d5f823e3d90fd5b9092508581813d8311611132575b6111228183611e17565b8101031261017c5751918e610fc1565b503d611118565b5087517f5a4e326a000000000000000000000000000000000000000000000000000000008152fd5b8c517f70a082310000000000000000000000000000000000000000000000000000000081523087820152935090918391602491839160800135165afa908115611100575f916111b2575b5095610f74565b90508581813d83116111d8575b6111c98183611e17565b8101031261017c57518e6111ab565b503d6111bf565b828a517f7055054e000000000000000000000000000000000000000000000000000000008152fd5b606090610f4e565b858d517f8216cd1c000000000000000000000000000000000000000000000000000000008152fd5b90508881813d831161125d575b61124e8183611e17565b8101031261017c57515f610f00565b503d611244565b8d513d5f823e3d90fd5b838b517ff4059071000000000000000000000000000000000000000000000000000000008152fd5b503d156112ab578d5f5114601f3d1116610e92565b853b1515610e92565b6011867f4e487b71000000000000000000000000000000000000000000000000000000005f525260245ffd5b848a517fb8b2fe63000000000000000000000000000000000000000000000000000000008152fd5b5084517fd25aa106000000000000000000000000000000000000000000000000000000008152fd5b84517f3ee5aeb5000000000000000000000000000000000000000000000000000000008152fd5b503461017c575f7ffffffffffffffffffffffffffffffffffffffffffffffffffffffffffffffffc36011261017c5760209073ffffffffffffffffffffffffffffffffffffffff5f54169051908152f35b3461017c576020807ffffffffffffffffffffffffffffffffffffffffffffffffffffffffffffffffc36011261017c57813590815f5260029360028252805f20928151936113f585611dcd565b73ffffffffffffffffffffffffffffffffffffffff9081815416865260019582600183015416868201526002820154858201526003820154606082015287820154608082015282600583015460ff8116151560a084015260081c1660c082015261014060ff600885600686015416948560e08601526007810154610100860152015481811661012085015260081c169101523314159081611585575b5061155d575f52600282525f600882822082815582600182015582600282015582600382015582878201558260058201558260068201558260078201550155600582525f208054935f8255846114e357005b7f7fffffffffffffffffffffffffffffffffffffffffffffffffffffffffffffff8516850361153157505f525f209160011b8201915b82811061152257005b5f808255828201558301611519565b6011907f4e487b71000000000000000000000000000000000000000000000000000000005f525260245ffd5b8482517f5c427cd9000000000000000000000000000000000000000000000000000000008152fd5b90505f541633141587611491565b503461017c575f7ffffffffffffffffffffffffffffffffffffffffffffffffffffffffffffffffc36011261017c5760207f62e78cea01bee320cd4e420270b5ea74000d11b0c9f74754ebdbfc544b05a258916115ee6124a9565b6115f66120ce565b740100000000000000000000000000000000000000007fffffffffffffffffffffff00ffffffffffffffffffffffffffffffffffffffff5f5416175f5551338152a1005b503461017c575f7ffffffffffffffffffffffffffffffffffffffffffffffffffffffffffffffffc36011261017c576020905173ffffffffffffffffffffffffffffffffffffffff7f0000000000000000000000000000000000000000000000000000000000000000168152f35b503461017c57807ffffffffffffffffffffffffffffffffffffffffffffffffffffffffffffffffc36011261017c576020906103c96116e5611bdc565b6106ef611bff565b3461017c575f7ffffffffffffffffffffffffffffffffffffffffffffffffffffffffffffffffc36011261017c576117236124a9565b5f73ffffffffffffffffffffffffffffffffffffffff81547fffffffffffffffffffffffff000000000000000000000000000000000000000081168355167f8be0079c531659141344cd1fd0a4f28419497f9722a3daafe3b4186f6b6457e08280a3005b503461017c575f7ffffffffffffffffffffffffffffffffffffffffffffffffffffffffffffffffc36011261017c5760209060ff5f5460a01c1690519015158152f35b503461017c5760207ffffffffffffffffffffffffffffffffffffffffffffffffffffffffffffffffc36011261017c5760209073ffffffffffffffffffffffffffffffffffffffff61181a611bdc565b165f526003825260ff815f20541690519015158152f35b3461017c57817ffffffffffffffffffffffffffffffffffffffffffffffffffffffffffffffffc36011261017c5760243590355f526005602052815f2090815481101561017c5761188191611db4565b506001815491015482519182526020820152f35b903461017c575f7ffffffffffffffffffffffffffffffffffffffffffffffffffffffffffffffffc36011261017c576118cc6124a9565b5f549160ff8360a01c161561192b577f5db9ee0a495bf2e6ff9c91a7834c1ba4fdd244a5e8aa4e537bd38aeae4b073aa6020837fffffffffffffffffffffff00ffffffffffffffffffffffffffffffffffffffff86165f5551338152a1005b90517f8dfc202b000000000000000000000000000000000000000000000000000000008152fd5b503461017c576020906103c961196736611ccf565b979690969591959492946124f9565b903461017c57807ffffffffffffffffffffffffffffffffffffffffffffffffffffffffffffffffc36011261017c5760207f3267ce6538603bbd2dd410066cae6a935b311f3b7e11fbe36a938a807e447945916119d1611bdc565b9073ffffffffffffffffffffffffffffffffffffffff602435926119f36124a9565b1694855f52835281815f205551908152a2005b903461017c57611a1536611c22565b50505050509350915050611a276120ce565b805f526002602052825f20835191611a3e83611dcd565b73ffffffffffffffffffffffffffffffffffffffff9081835416845281600184015416936020810194855260028401549487820195865260038501546060830152888501549660808301978852600586015460a084019660ff8216151588528660c086019260081c1682528660068201541660e086015260ff600860078301549283610100890152015481811661012088015260081c1661014086015215611b865785905116858115159283611b79575b505050611b515783611b1394611b0a9351169151169061215f565b809551916123aa565b5115611b4857511115611b2257005b517fdfa9fa30000000000000000000000000000000000000000000000000000000008152fd5b511015611b2257005b8888517f77b14347000000000000000000000000000000000000000000000000000000008152fd5b16141590508a8581611aef565b8a8a517fdfa9fa30000000000000000000000000000000000000000000000000000000008152fd5b9181601f8401121561017c5782359167ffffffffffffffff831161017c576020838186019501011161017c57565b6004359073ffffffffffffffffffffffffffffffffffffffff8216820361017c57565b6024359073ffffffffffffffffffffffffffffffffffffffff8216820361017c57565b7ffffffffffffffffffffffffffffffffffffffffffffffffffffffffffffffffc81016101e0811261017c576101001361017c5760049167ffffffffffffffff6101043581811161017c5783611c7a91600401611bae565b9390939261012435926101443573ffffffffffffffffffffffffffffffffffffffff8116810361017c5792610164359261018435926101a435926101c43591821161017c57611ccb91600401611bae565b9091565b907ffffffffffffffffffffffffffffffffffffffffffffffffffffffffffffffffc82016101c0811261017c576101001361017c5760049167ffffffffffffffff906101043582811161017c5781611d2991600401611bae565b9390939261012435926101443573ffffffffffffffffffffffffffffffffffffffff8116810361017c5792610164359261018435926101a43591821161017c57611ccb91600401611bae565b805415611d87575f5260205f20905f90565b7f4e487b71000000000000000000000000000000000000000000000000000000005f52603260045260245ffd5b8054821015611d87575f5260205f209060011b01905f90565b610160810190811067ffffffffffffffff821117611dea57604052565b7f4e487b71000000000000000000000000000000000000000000000000000000005f52604160045260245ffd5b90601f7fffffffffffffffffffffffffffffffffffffffffffffffffffffffffffffffe0910116810190811067ffffffffffffffff821117611dea57604052565b81810292918115918404141715611e6b57565b7f4e487b71000000000000000000000000000000000000000000000000000000005f52601160045260245ffd5b67ffffffffffffffff8111611dea57601f017fffffffffffffffffffffffffffffffffffffffffffffffffffffffffffffffe01660200190565b60443573ffffffffffffffffffffffffffffffffffffffff8116810361017c5790565b60643573ffffffffffffffffffffffffffffffffffffffff8116810361017c5790565b9081602091031261017c575160ff8116810361017c5790565b6101643560ff8116810361017c5790565b6101843560ff8116810361017c5790565b60e435801515810361017c5790565b5f5260206002815260405f20604051611f7a81611dcd565b73ffffffffffffffffffffffffffffffffffffffff928383541692838352846001820154169081838501526002810154936040810194855260038201546060820152600482015460808201526005820154968060a083019860ff811615158a5260081c1660c083015260068301541660e082015261014060ff600860078501549485610100860152015481811661012085015260081c1691015284159081156120c5575b506120ba57604051937f7a035a59000000000000000000000000000000000000000000000000000000008552600485015260248401528083604481305afa9283915f9461208a575b5050612075575050505f905f90565b81925115155f1461208557511191565b511091565b9080929450813d83116120b3575b6120a28183611e17565b8101031261017c5751915f80612066565b503d612098565b50505050505f905f90565b9050155f61201e565b60ff5f5460a01c166120dc57565b60046040517fd93c0665000000000000000000000000000000000000000000000000000000008152fd5b519069ffffffffffffffffffff8216820361017c57565b908160a091031261017c5761213181612106565b9160208201519160408101519161214f608060608401519301612106565b90565b91908201809211611e6b57565b919073ffffffffffffffffffffffffffffffffffffffff8093169260408051917ffeaf968c000000000000000000000000000000000000000000000000000000009081845260a09460049786868a81845afa90811561235c575f965f92612335575b505f87131561230d57906121e5915f5289602052855f205490811561230357612152565b42116122db5716825191825284828881845afa9182156122d1575f955f93612298575b50505f851315612270575f5285602052815f20548015612267575b61222e904292612152565b1061223f575061214f929350612ab5565b8490517fa887f2d8000000000000000000000000000000000000000000000000000000008152fd5b50613840612223565b8683517f1f8f95a0000000000000000000000000000000000000000000000000000000008152fd5b80919296506122bc9350903d106122ca575b6122b48183611e17565b81019061211d565b509592505093905f80612208565b503d6122aa565b83513d5f823e3d90fd5b8784517fa887f2d8000000000000000000000000000000000000000000000000000000008152fd5b6138409150612152565b8986517f1f8f95a0000000000000000000000000000000000000000000000000000000008152fd5b90965061234f9150873d89116122ca576122b48183611e17565b509792505095905f6121c1565b85513d5f823e3d90fd5b91908203918211611e6b57565b811561237d570490565b7f4e487b71000000000000000000000000000000000000000000000000000000005f52601260045260245ffd5b5f52600560205260405f208054806123c3575b50505050565b7fffffffffffffffffffffffffffffffffffffffffffffffffffffffffffffffff8101908111611e6b576123f691611db4565b50549081811480156124a1575b61249c57818082111561246f5761241991612366565b9061271091828102928184041490151715611e6b5761243791612373565b11612445575f8080806123bd565b60046040517fd3c4a2f2000000000000000000000000000000000000000000000000000000008152fd5b9061247991612366565b9061271091828102928184041490151715611e6b5761249791612373565b612437565b505050565b508215612403565b73ffffffffffffffffffffffffffffffffffffffff5f541633036124c957565b60246040517f118cdaa7000000000000000000000000000000000000000000000000000000008152336004820152fd5b9497919296909395875f52600260205260405f20966040519861251b8a611dcd565b73ffffffffffffffffffffffffffffffffffffffff95868a54168b528660018b0154169760208c0198895260028b01549960408d019a8b528c60038d015490606001528c60048d0154906080015260058c01549b8d8a60a082019e8f60ff82161515905260081c169060c001528d8a6006830154169060e001528d600782015491826101008301526008015460ff811661012083015260081c60ff169061014001521561260457505050505050505090816125dc928651169151169061215f565b9151156125fc575181105b156125f55761214f92612f12565b5050505f90565b5181116125e7565b93975093985093985093985061214f999550612dc6565b5f52600560205260405f20805490811561276257600191828114612752577fffffffffffffffffffffffffffffffffffffffffffffffffffffffffffffffff810192818411611e6b576078612689826126806126778888611db4565b50549787611db4565b50015442612366565b111561274c575f915f937ffffffffffffffffffffffffffffffffffffffffffffffffffffffffffffffed44201428111611e6b575f5b8381106126e2575050841592506126dd9150505761214f9250612373565b505090565b81856126ee8386611db4565b50015410156126ff575b84016126bf565b959461270f856126808986611db4565b90858201809211611e6b578161273e6127449261273889956127318d8a611db4565b5054611e58565b90612152565b97612152565b9690506126f8565b50505090565b5061275d9150611d75565b505490565b5050600260205260405f2060405161277981611dcd565b73ffffffffffffffffffffffffffffffffffffffff9061014060ff600884865416958685528560018201541695866020870152600282015460408701526003820154606087015260048201546080870152806005830154858116151560a0890152841c1660c087015260068201541660e08601526007810154610100860152015481811661012085015260081c16910152816128395760046040517f71fbb61d000000000000000000000000000000000000000000000000000000008152fd5b61214f9161215f565b9160446020925f92604051917fa9059cbb0000000000000000000000000000000000000000000000000000000083526004830152602482015282855af190816128b8575b501561288e57565b60046040517ffb7f5079000000000000000000000000000000000000000000000000000000008152fd5b90503d156128d2575060015f5114601f3d11165b5f612886565b3b15156128cc565b9497919296909395875f52600260205260405f2096604051986128fc8a611dcd565b73ffffffffffffffffffffffffffffffffffffffff95868a54168b528660018b0154169760208c0198895260028b01549960408d019a8b528c60038d015490606001528c60048d0154906080015260058c01549b8d8a60a082019e8f60ff82161515905260081c169060c001528d8a6006830154169060e001528d600782015491826101008301526008015460ff811661012083015260081c60ff1690610140015215612a0557505050505050505090816129bd928651169151169061215f565b9151156129fd575181105b156129d65761214f92612fc9565b5050507fffffffffffffffffffffffffffffffffffffffffffffffffffffffffffffffff90565b5181116129c8565b93975093985093985093985061214f999550613156565b90808202907fffffffffffffffffffffffffffffffffffffffffffffffffffffffffffffffff81840990828083109203918083039214612aaa576127109082821115612a98577fbc01a36e2eb1c432ca57a786c226809d495182a9930be0ded288ce703afb7e91940990828211900360fc1b910360041c170290565b634e487b715f5260116020526024601cfd5b505061271091500490565b90670de0b6b3a764000090818302917fffffffffffffffffffffffffffffffffffffffffffffffffffffffffffffffff81850993838086109503948086039514612b695784831115612b515790829109815f038216809204600280826003021880830282030280830282030280830282030280830282030280830282030280920290030293600183805f03040190848311900302920304170290565b82634e487b715f52156003026011186020526024601cfd5b50509061214f9250612373565b90808202907fffffffffffffffffffffffffffffffffffffffffffffffffffffffffffffffff81840990828083109203918083039214612bf857670de0b6b3a76400009082821115612a98577faccb18165bd6fe31ae1cf318dc5b51eee0e1ba569b88cd74c1773b91fac10669940990828211900360ee1b910360121c170290565b5050670de0b6b3a764000091500490565b91818302917fffffffffffffffffffffffffffffffffffffffffffffffffffffffffffffffff81850993838086109503948086039514612b695784831115612b515790829109815f038216809204600280826003021880830282030280830282030280830282030280830282030280830282030280920290030293600183805f03040190848311900302920304170290565b7fffffffffffffffffffffffffffffffffffffffff0000000000000000000000009035818116939260148110612cd057505050565b60140360031b82901b16169150565b601f82602094937fffffffffffffffffffffffffffffffffffffffffffffffffffffffffffffffe093818652868601375f8582860101520116010190565b949073ffffffffffffffffffffffffffffffffffffffff9261214f9a9895999794612d9e9260e06101c09180358b52602081013560208c0152604081013560408c0152606081013560608c0152608081013560808c015260a081013560a08c015260c081013560c08c0152013560e08a0152806101008a0152880191612cdf565b97610120860152166101408401526101608301526101808201526101a0818503910152612cdf565b9097949693959492939060148410612ea357612de28483612c9b565b60601c958460141161017c576020986014987fffffffffffffffffffffffffffffffffffffffffffffffffffffffffffffffec97612e54966040519d8e9c8d9b8c9b7f1d9671c3000000000000000000000000000000000000000000000000000000008d520198019660048b01612d1d565b03915afa908115612e98575f91612e69575090565b90506020813d602011612e90575b81612e8460209383611e17565b8101031261017c575190565b3d9150612e77565b6040513d5f823e3d90fd5b969550505050505061214f925060a060c0830135920135612c09565b60ff7fffffffffffffffffffffffffffffffffffffffffffffffffffffffffffffffee9116019060ff8211611e6b57565b60ff166012039060ff8211611e6b57565b60ff16604d8111611e6b57600a0a90565b61012091612f55918061014086019160ff835116601281105f14612f9e575050612f4a612f4560ff612f50945116612ef0565b612f01565b90611e58565b612b76565b9101805160ff166012811015612f80575090612f7a612f4560ff61214f945116612ef0565b90612373565b905060128111612f8e575090565b90612f4a612f4561214f93612ebf565b90925060128111612fb1575b5050612b76565b612fc29250612f45612f7a91612ebf565b5f80612faa565b61014091612f55918061012086019160ff835116601281105f14613001575050612f4a612f4560ff612ffc945116612ef0565b612ab5565b90925060128111613014575b5050612ab5565b6130259250612f45612f7a91612ebf565b5f8061300d565b91906130398282856130f2565b1561304357505050565b60205f60446040517f095ea7b300000000000000000000000000000000000000000000000000000000815284600482015282602482015282875af1806130d3575b159283156130c0575b50505061309657565b60046040517f19be9a90000000000000000000000000000000000000000000000000000000008152fd5b6130ca93506130f2565b155f808061308d565b503d156130e95760015f5114601f3d1116613084565b823b1515613084565b929160446020925f92604051917f095ea7b30000000000000000000000000000000000000000000000000000000083526004830152602482015282865af191826131395750565b9091503d15613150575060015f5114601f3d111690565b3b151590565b90979496939594929390601484106131e4576131728483612c9b565b60601c958460141161017c576020986014987fffffffffffffffffffffffffffffffffffffffffffffffffffffffffffffffec97612e54966040519d8e9c8d9b8c9b7fd7ff8a80000000000000000000000000000000000000000000000000000000008d520198019660048b01612d1d565b975050505050505060a060c0830135920135613201818385612c09565b91811561237d5761214f930915159061215256fea2646970667358221220033becf845731ac520f0001f7c5ed287ec75b162f204f2c89dda1b5bec88e12864736f6c63430008170033",
  "linkReferences": {},
  "deployedLinkReferences": {}
}